{
  "contractName": "Rideshare",
  "abi": [
    {
      "constant": true,
      "inputs": [
        {
          "name": "",
          "type": "address"
        }
      ],
      "name": "vehicles",
      "outputs": [
        {
          "name": "make",
          "type": "string"
        },
        {
          "name": "model",
          "type": "string"
        },
        {
          "name": "price",
          "type": "uint256"
        },
        {
          "name": "location",
          "type": "string"
        },
        {
          "name": "state",
          "type": "uint8"
        },
        {
          "name": "registered",
          "type": "bool"
        }
      ],
      "payable": false,
      "stateMutability": "view",
      "type": "function",
      "signature": "0x028e7768"
    },
    {
      "constant": true,
      "inputs": [],
      "name": "numVehicles",
      "outputs": [
        {
          "name": "",
          "type": "uint256"
        }
      ],
      "payable": false,
      "stateMutability": "view",
      "type": "function",
      "signature": "0x3e5d9c95"
    },
    {
      "constant": true,
      "inputs": [
        {
          "name": "",
          "type": "uint256"
        }
      ],
      "name": "vehicleAccts",
      "outputs": [
        {
          "name": "",
          "type": "address"
        }
      ],
      "payable": false,
      "stateMutability": "view",
      "type": "function",
      "signature": "0x5e837575"
    },
    {
      "anonymous": false,
      "inputs": [
        {
          "indexed": true,
          "name": "_id",
          "type": "address"
        },
        {
          "indexed": false,
          "name": "_make",
          "type": "string"
        },
        {
          "indexed": false,
          "name": "_model",
          "type": "string"
        },
        {
          "indexed": false,
          "name": "_price",
          "type": "uint256"
        },
        {
          "indexed": false,
          "name": "_location",
          "type": "string"
        }
      ],
      "name": "getVeh",
      "type": "event",
      "signature": "0x8b0f3bd08090bd8a9efca178b6f124e5e3e05d1b38f6cdf99c27c29dec9a2a8c"
    },
    {
      "constant": false,
      "inputs": [
        {
          "name": "addr",
          "type": "address"
        },
        {
          "name": "fName",
          "type": "string"
        },
        {
          "name": "lName",
          "type": "string"
        },
        {
          "name": "licenceNo",
          "type": "string"
        },
        {
          "name": "dob",
          "type": "string"
        }
      ],
      "name": "setUser",
      "outputs": [],
      "payable": false,
      "stateMutability": "nonpayable",
      "type": "function",
      "signature": "0x7a60dd35"
    },
    {
      "constant": true,
      "inputs": [
        {
          "name": "addr",
          "type": "address"
        }
      ],
      "name": "getUser",
      "outputs": [
        {
          "name": "",
          "type": "address"
        },
        {
          "name": "",
          "type": "string"
        },
        {
          "name": "",
          "type": "string"
        },
        {
          "name": "",
          "type": "string"
        },
        {
          "name": "",
          "type": "string"
        }
      ],
      "payable": false,
      "stateMutability": "view",
      "type": "function",
      "signature": "0x6f77926b"
    },
    {
      "constant": false,
      "inputs": [
        {
          "name": "driver",
          "type": "address"
        },
        {
          "name": "vehicle",
          "type": "address"
        },
        {
          "name": "start_date_time",
          "type": "string"
        },
        {
          "name": "end_date_time",
          "type": "string"
        },
        {
          "name": "location",
          "type": "string"
        }
      ],
      "name": "setHire",
      "outputs": [],
      "payable": true,
      "stateMutability": "payable",
      "type": "function",
      "signature": "0x555c5d30"
    },
    {
      "constant": true,
      "inputs": [
        {
          "name": "rentalNo",
          "type": "uint256"
        }
      ],
      "name": "getHire",
      "outputs": [
        {
          "name": "",
          "type": "address"
        },
        {
          "name": "",
          "type": "address"
        },
        {
          "name": "",
          "type": "string"
        },
        {
          "name": "",
          "type": "string"
        },
        {
          "name": "",
          "type": "uint256"
        },
        {
          "name": "",
          "type": "string"
        }
      ],
      "payable": false,
      "stateMutability": "view",
      "type": "function",
      "signature": "0xc87cacbc"
    },
    {
      "constant": false,
      "inputs": [
        {
          "name": "make",
          "type": "string"
        },
        {
          "name": "model",
          "type": "string"
        },
        {
          "name": "price",
          "type": "uint256"
        },
        {
          "name": "location",
          "type": "string"
        }
      ],
      "name": "setVehicle",
      "outputs": [],
      "payable": false,
      "stateMutability": "nonpayable",
      "type": "function",
      "signature": "0xfeca3f5c"
    },
    {
      "constant": true,
      "inputs": [
        {
          "name": "owner",
          "type": "address"
        }
      ],
      "name": "getVehicle",
      "outputs": [
        {
          "name": "",
          "type": "string"
        },
        {
          "name": "",
          "type": "string"
        },
        {
          "name": "",
          "type": "uint256"
        },
        {
          "name": "",
          "type": "string"
        }
      ],
      "payable": false,
      "stateMutability": "view",
      "type": "function",
      "signature": "0xa93ab101"
    },
    {
      "constant": true,
      "inputs": [
        {
          "name": "owner",
          "type": "address"
        }
      ],
      "name": "isRegistered",
      "outputs": [
        {
          "name": "",
          "type": "bool"
        }
      ],
      "payable": false,
      "stateMutability": "view",
      "type": "function",
      "signature": "0xc3c5a547"
    },
    {
      "constant": true,
      "inputs": [],
      "name": "vehicleList",
      "outputs": [
        {
          "name": "",
          "type": "address[]"
        }
      ],
      "payable": false,
      "stateMutability": "view",
      "type": "function",
      "signature": "0x987593a7"
    }
  ],
  "bytecode": "0x6080604052600060035534801561001557600080fd5b506125e9806100256000396000f3fe6080604052600436106100af576000357c0100000000000000000000000000000000000000000000000000000000900463ffffffff168063028e7768146100b45780633e5d9c951461027d578063555c5d30146102a85780635e837575146104d15780636f77926b1461054c5780637a60dd351461078d578063987593a714610a3a578063a93ab10114610aa6578063c3c5a54714610c4f578063c87cacbc14610cb8578063feca3f5c14610eb1575b600080fd5b3480156100c057600080fd5b50610103600480360360208110156100d757600080fd5b81019080803573ffffffffffffffffffffffffffffffffffffffff1690602001909291905050506110b1565b6040518080602001806020018781526020018060200186600281111561012557fe5b60ff1681526020018515151515815260200184810384528a818151815260200191508051906020019080838360005b8381101561016f578082015181840152602081019050610154565b50505050905090810190601f16801561019c5780820380516001836020036101000a031916815260200191505b50848103835289818151815260200191508051906020019080838360005b838110156101d55780820151818401526020810190506101ba565b50505050905090810190601f1680156102025780820380516001836020036101000a031916815260200191505b50848103825287818151815260200191508051906020019080838360005b8381101561023b578082015181840152602081019050610220565b50505050905090810190601f1680156102685780820380516001836020036101000a031916815260200191505b50995050505050505050505060405180910390f35b34801561028957600080fd5b506102926112cf565b6040518082815260200191505060405180910390f35b6104cf600480360360a08110156102be57600080fd5b81019080803573ffffffffffffffffffffffffffffffffffffffff169060200190929190803573ffffffffffffffffffffffffffffffffffffffff1690602001909291908035906020019064010000000081111561031b57600080fd5b82018360208201111561032d57600080fd5b8035906020019184600183028401116401000000008311171561034f57600080fd5b91908080601f016020809104026020016040519081016040528093929190818152602001838380828437600081840152601f19601f820116905080830192505050505050509192919290803590602001906401000000008111156103b257600080fd5b8201836020820111156103c457600080fd5b803590602001918460018302840111640100000000831117156103e657600080fd5b91908080601f016020809104026020016040519081016040528093929190818152602001838380828437600081840152601f19601f8201169050808301925050505050505091929192908035906020019064010000000081111561044957600080fd5b82018360208201111561045b57600080fd5b8035906020019184600183028401116401000000008311171561047d57600080fd5b91908080601f016020809104026020016040519081016040528093929190818152602001838380828437600081840152601f19601f8201169050808301925050505050505091929192905050506112d5565b005b3480156104dd57600080fd5b5061050a600480360360208110156104f457600080fd5b810190808035906020019092919050505061143e565b604051808273ffffffffffffffffffffffffffffffffffffffff1673ffffffffffffffffffffffffffffffffffffffff16815260200191505060405180910390f35b34801561055857600080fd5b5061059b6004803603602081101561056f57600080fd5b81019080803573ffffffffffffffffffffffffffffffffffffffff16906020019092919050505061147c565b604051808673ffffffffffffffffffffffffffffffffffffffff1673ffffffffffffffffffffffffffffffffffffffff16815260200180602001806020018060200180602001858103855289818151815260200191508051906020019080838360005b838110156106195780820151818401526020810190506105fe565b50505050905090810190601f1680156106465780820380516001836020036101000a031916815260200191505b50858103845288818151815260200191508051906020019080838360005b8381101561067f578082015181840152602081019050610664565b50505050905090810190601f1680156106ac5780820380516001836020036101000a031916815260200191505b50858103835287818151815260200191508051906020019080838360005b838110156106e55780820151818401526020810190506106ca565b50505050905090810190601f1680156107125780820380516001836020036101000a031916815260200191505b50858103825286818151815260200191508051906020019080838360005b8381101561074b578082015181840152602081019050610730565b50505050905090810190601f1680156107785780820380516001836020036101000a031916815260200191505b50995050505050505050505060405180910390f35b34801561079957600080fd5b50610a38600480360360a08110156107b057600080fd5b81019080803573ffffffffffffffffffffffffffffffffffffffff169060200190929190803590602001906401000000008111156107ed57600080fd5b8201836020820111156107ff57600080fd5b8035906020019184600183028401116401000000008311171561082157600080fd5b91908080601f016020809104026020016040519081016040528093929190818152602001838380828437600081840152601f19601f8201169050808301925050505050505091929192908035906020019064010000000081111561088457600080fd5b82018360208201111561089657600080fd5b803590602001918460018302840111640100000000831117156108b857600080fd5b91908080601f016020809104026020016040519081016040528093929190818152602001838380828437600081840152601f19601f8201169050808301925050505050505091929192908035906020019064010000000081111561091b57600080fd5b82018360208201111561092d57600080fd5b8035906020019184600183028401116401000000008311171561094f57600080fd5b91908080601f016020809104026020016040519081016040528093929190818152602001838380828437600081840152601f19601f820116905080830192505050505050509192919290803590602001906401000000008111156109b257600080fd5b8201836020820111156109c457600080fd5b803590602001918460018302840111640100000000831117156109e657600080fd5b91908080601f016020809104026020016040519081016040528093929190818152602001838380828437600081840152601f19601f820116905080830192505050505050509192919290505050611810565b005b348015610a4657600080fd5b50610a4f6118ef565b6040518080602001828103825283818151815260200191508051906020019060200280838360005b83811015610a92578082015181840152602081019050610a77565b505050509050019250505060405180910390f35b348015610ab257600080fd5b50610af560048036036020811015610ac957600080fd5b81019080803573ffffffffffffffffffffffffffffffffffffffff16906020019092919050505061197d565b60405180806020018060200185815260200180602001848103845288818151815260200191508051906020019080838360005b83811015610b43578082015181840152602081019050610b28565b50505050905090810190601f168015610b705780820380516001836020036101000a031916815260200191505b50848103835287818151815260200191508051906020019080838360005b83811015610ba9578082015181840152602081019050610b8e565b50505050905090810190601f168015610bd65780820380516001836020036101000a031916815260200191505b50848103825285818151815260200191508051906020019080838360005b83811015610c0f578082015181840152602081019050610bf4565b50505050905090810190601f168015610c3c5780820380516001836020036101000a031916815260200191505b5097505050505050505060405180910390f35b348015610c5b57600080fd5b50610c9e60048036036020811015610c7257600080fd5b81019080803573ffffffffffffffffffffffffffffffffffffffff169060200190929190505050611c70565b604051808215151515815260200191505060405180910390f35b348015610cc457600080fd5b50610cf160048036036020811015610cdb57600080fd5b8101908080359060200190929190505050611cc9565b604051808773ffffffffffffffffffffffffffffffffffffffff1673ffffffffffffffffffffffffffffffffffffffff1681526020018673ffffffffffffffffffffffffffffffffffffffff1673ffffffffffffffffffffffffffffffffffffffff168152602001806020018060200185815260200180602001848103845288818151815260200191508051906020019080838360005b83811015610da3578082015181840152602081019050610d88565b50505050905090810190601f168015610dd05780820380516001836020036101000a031916815260200191505b50848103835287818151815260200191508051906020019080838360005b83811015610e09578082015181840152602081019050610dee565b50505050905090810190601f168015610e365780820380516001836020036101000a031916815260200191505b50848103825285818151815260200191508051906020019080838360005b83811015610e6f578082015181840152602081019050610e54565b50505050905090810190601f168015610e9c5780820380516001836020036101000a031916815260200191505b50995050505050505050505060405180910390f35b348015610ebd57600080fd5b506110af60048036036080811015610ed457600080fd5b8101908080359060200190640100000000811115610ef157600080fd5b820183602082011115610f0357600080fd5b80359060200191846001830284011164010000000083111715610f2557600080fd5b91908080601f016020809104026020016040519081016040528093929190818152602001838380828437600081840152601f19601f82011690508083019250505050505050919291929080359060200190640100000000811115610f8857600080fd5b820183602082011115610f9a57600080fd5b80359060200191846001830284011164010000000083111715610fbc57600080fd5b91908080601f016020809104026020016040519081016040528093929190818152602001838380828437600081840152601f19601f820116905080830192505050505050509192919290803590602001909291908035906020019064010000000081111561102957600080fd5b82018360208201111561103b57600080fd5b8035906020019184600183028401116401000000008311171561105d57600080fd5b91908080601f016020809104026020016040519081016040528093929190818152602001838380828437600081840152601f19601f82011690508083019250505050505050919291929050505061218c565b005b6001602052806000526040600020600091509050806000018054600181600116156101000203166002900480601f01602080910402602001604051908101604052809291908181526020018280546001816001161561010002031660029004801561115d5780601f106111325761010080835404028352916020019161115d565b820191906000526020600020905b81548152906001019060200180831161114057829003601f168201915b505050505090806001018054600181600116156101000203166002900480601f0160208091040260200160405190810160405280929190818152602001828054600181600116156101000203166002900480156111fb5780601f106111d0576101008083540402835291602001916111fb565b820191906000526020600020905b8154815290600101906020018083116111de57829003601f168201915b505050505090806002015490806003018054600181600116156101000203166002900480601f01602080910402602001604051908101604052809291908181526020018280546001816001161561010002031660029004801561129f5780601f106112745761010080835404028352916020019161129f565b820191906000526020600020905b81548152906001019060200180831161128257829003601f168201915b5050505050908060040160009054906101000a900460ff16908060040160019054906101000a900460ff16905086565b60035481565b60046000815480929190600101919050555060a0604051908101604052808673ffffffffffffffffffffffffffffffffffffffff1681526020018573ffffffffffffffffffffffffffffffffffffffff16815260200184815260200183815260200182815250600080600454815260200190815260200160002060008201518160000160006101000a81548173ffffffffffffffffffffffffffffffffffffffff021916908373ffffffffffffffffffffffffffffffffffffffff16021790555060208201518160010160006101000a81548173ffffffffffffffffffffffffffffffffffffffff021916908373ffffffffffffffffffffffffffffffffffffffff16021790555060408201518160020190805190602001906113f9929190612454565b506060820151816003019080519060200190611416929190612454565b506080820151816004019080519060200190611433929190612454565b509050505050505050565b60058181548110151561144d57fe5b906000526020600020016000915054906101000a900473ffffffffffffffffffffffffffffffffffffffff1681565b600060608060608085600260008873ffffffffffffffffffffffffffffffffffffffff1673ffffffffffffffffffffffffffffffffffffffff168152602001908152602001600020600001600260008973ffffffffffffffffffffffffffffffffffffffff1673ffffffffffffffffffffffffffffffffffffffff168152602001908152602001600020600101600260008a73ffffffffffffffffffffffffffffffffffffffff1673ffffffffffffffffffffffffffffffffffffffff168152602001908152602001600020600201600260008b73ffffffffffffffffffffffffffffffffffffffff1673ffffffffffffffffffffffffffffffffffffffff168152602001908152602001600020600301838054600181600116156101000203166002900480601f0160208091040260200160405190810160405280929190818152602001828054600181600116156101000203166002900480156116225780601f106115f757610100808354040283529160200191611622565b820191906000526020600020905b81548152906001019060200180831161160557829003601f168201915b50505050509350828054600181600116156101000203166002900480601f0160208091040260200160405190810160405280929190818152602001828054600181600116156101000203166002900480156116be5780601f10611693576101008083540402835291602001916116be565b820191906000526020600020905b8154815290600101906020018083116116a157829003601f168201915b50505050509250818054600181600116156101000203166002900480601f01602080910402602001604051908101604052809291908181526020018280546001816001161561010002031660029004801561175a5780601f1061172f5761010080835404028352916020019161175a565b820191906000526020600020905b81548152906001019060200180831161173d57829003601f168201915b50505050509150808054600181600116156101000203166002900480601f0160208091040260200160405190810160405280929190818152602001828054600181600116156101000203166002900480156117f65780601f106117cb576101008083540402835291602001916117f6565b820191906000526020600020905b8154815290600101906020018083116117d957829003601f168201915b505050505090509450945094509450945091939590929450565b60806040519081016040528085815260200184815260200183815260200182815250600260008773ffffffffffffffffffffffffffffffffffffffff1673ffffffffffffffffffffffffffffffffffffffff168152602001908152602001600020600082015181600001908051906020019061188d929190612454565b5060208201518160010190805190602001906118aa929190612454565b5060408201518160020190805190602001906118c7929190612454565b5060608201518160030190805190602001906118e4929190612454565b509050505050505050565b6060600580548060200260200160405190810160405280929190818152602001828054801561197357602002820191906000526020600020905b8160009054906101000a900473ffffffffffffffffffffffffffffffffffffffff1673ffffffffffffffffffffffffffffffffffffffff1681526020019060010190808311611929575b5050505050905090565b60608060006060600160008673ffffffffffffffffffffffffffffffffffffffff1673ffffffffffffffffffffffffffffffffffffffff168152602001908152602001600020600001600160008773ffffffffffffffffffffffffffffffffffffffff1673ffffffffffffffffffffffffffffffffffffffff168152602001908152602001600020600101600160008873ffffffffffffffffffffffffffffffffffffffff1673ffffffffffffffffffffffffffffffffffffffff16815260200190815260200160002060020154600160008973ffffffffffffffffffffffffffffffffffffffff1673ffffffffffffffffffffffffffffffffffffffff168152602001908152602001600020600301838054600181600116156101000203166002900480601f016020809104026020016040519081016040528092919081815260200182805460018160011615610100020316600290048015611b225780601f10611af757610100808354040283529160200191611b22565b820191906000526020600020905b815481529060010190602001808311611b0557829003601f168201915b50505050509350828054600181600116156101000203166002900480601f016020809104026020016040519081016040528092919081815260200182805460018160011615610100020316600290048015611bbe5780601f10611b9357610100808354040283529160200191611bbe565b820191906000526020600020905b815481529060010190602001808311611ba157829003601f168201915b50505050509250808054600181600116156101000203166002900480601f016020809104026020016040519081016040528092919081815260200182805460018160011615610100020316600290048015611c5a5780601f10611c2f57610100808354040283529160200191611c5a565b820191906000526020600020905b815481529060010190602001808311611c3d57829003601f168201915b5050505050905093509350935093509193509193565b6000600160008373ffffffffffffffffffffffffffffffffffffffff1673ffffffffffffffffffffffffffffffffffffffff16815260200190815260200160002060040160019054906101000a900460ff169050919050565b60008060608060006060600080600089815260200190815260200160002060010160009054906101000a900473ffffffffffffffffffffffffffffffffffffffff169050611d156124d4565b600160008373ffffffffffffffffffffffffffffffffffffffff1673ffffffffffffffffffffffffffffffffffffffff16815260200190815260200160002060c06040519081016040529081600082018054600181600116156101000203166002900480601f016020809104026020016040519081016040528092919081815260200182805460018160011615610100020316600290048015611df95780601f10611dce57610100808354040283529160200191611df9565b820191906000526020600020905b815481529060010190602001808311611ddc57829003601f168201915b50505050508152602001600182018054600181600116156101000203166002900480601f016020809104026020016040519081016040528092919081815260200182805460018160011615610100020316600290048015611e9b5780601f10611e7057610100808354040283529160200191611e9b565b820191906000526020600020905b815481529060010190602001808311611e7e57829003601f168201915b5050505050815260200160028201548152602001600382018054600181600116156101000203166002900480601f016020809104026020016040519081016040528092919081815260200182805460018160011615610100020316600290048015611f475780601f10611f1c57610100808354040283529160200191611f47565b820191906000526020600020905b815481529060010190602001808311611f2a57829003601f168201915b505050505081526020016004820160009054906101000a900460ff166002811115611f6e57fe5b6002811115611f7957fe5b81526020016004820160019054906101000a900460ff16151515158152505090506000808a815260200190815260200160002060000160009054906101000a900473ffffffffffffffffffffffffffffffffffffffff166000808b815260200190815260200160002060010160009054906101000a900473ffffffffffffffffffffffffffffffffffffffff166000808c81526020019081526020016000206002016000808d815260200190815260200160002060030184604001518560600151838054600181600116156101000203166002900480601f0160208091040260200160405190810160405280929190818152602001828054600181600116156101000203166002900480156120cf5780601f106120a4576101008083540402835291602001916120cf565b820191906000526020600020905b8154815290600101906020018083116120b257829003601f168201915b50505050509350828054600181600116156101000203166002900480601f01602080910402602001604051908101604052809291908181526020018280546001816001161561010002031660029004801561216b5780601f106121405761010080835404028352916020019161216b565b820191906000526020600020905b81548152906001019060200180831161214e57829003601f168201915b50505050509250809050975097509750975097509750505091939550919395565b6003600081548092919060010191905055506000600160003373ffffffffffffffffffffffffffffffffffffffff1673ffffffffffffffffffffffffffffffffffffffff1681526020019081526020016000209050848160000190805190602001906121f9929190612518565b5083816001019080519060200190612212929190612518565b5082816002018190555081816003019080519060200190612234929190612518565b5060018160040160016101000a81548160ff0219169083151502179055503373ffffffffffffffffffffffffffffffffffffffff167f8b0f3bd08090bd8a9efca178b6f124e5e3e05d1b38f6cdf99c27c29dec9a2a8c8686868660405180806020018060200185815260200180602001848103845288818151815260200191508051906020019080838360005b838110156122dc5780820151818401526020810190506122c1565b50505050905090810190601f1680156123095780820380516001836020036101000a031916815260200191505b50848103835287818151815260200191508051906020019080838360005b83811015612342578082015181840152602081019050612327565b50505050905090810190601f16801561236f5780820380516001836020036101000a031916815260200191505b50848103825285818151815260200191508051906020019080838360005b838110156123a857808201518184015260208101905061238d565b50505050905090810190601f1680156123d55780820380516001836020036101000a031916815260200191505b5097505050505050505060405180910390a260053390806001815401808255809150509060018203906000526020600020016000909192909190916101000a81548173ffffffffffffffffffffffffffffffffffffffff021916908373ffffffffffffffffffffffffffffffffffffffff160217905550505050505050565b828054600181600116156101000203166002900490600052602060002090601f016020900481019282601f1061249557805160ff19168380011785556124c3565b828001600101855582156124c3579182015b828111156124c25782518255916020019190600101906124a7565b5b5090506124d09190612598565b5090565b60c060405190810160405280606081526020016060815260200160008152602001606081526020016000600281111561250957fe5b81526020016000151581525090565b828054600181600116156101000203166002900490600052602060002090601f016020900481019282601f1061255957805160ff1916838001178555612587565b82800160010185558215612587579182015b8281111561258657825182559160200191906001019061256b565b5b5090506125949190612598565b5090565b6125ba91905b808211156125b657600081600090555060010161259e565b5090565b9056fea165627a7a72305820995abe2ec1255bda15621c6d9f4e6fcc25ef976aa86a1fd42638922845da48530029",
  "source": "pragma solidity ^0.5.0;\r\n\r\ncontract Rideshare {\r\n\r\n    struct Vehicle {\r\n        string make;\r\n        string model;\r\n        uint price;\r\n        string location; // locating is converted from string to address using parseAddress string\r\n        VehicleState state; // status of the vehicle. Has to be idle to hire vehicle\r\n        bool registered;\r\n    }\r\n    \r\n    struct User {\r\n        string fName;\r\n        string lName;\r\n        string licenceNo;\r\n        string dob;\r\n    }\r\n\r\n    struct Rental {\r\n        address driver;\r\n        address vehicle;\r\n        string start_date_time;\r\n        string end_date_time;\r\n        string location;\r\n    }\r\n\r\n    event getVeh (\r\n        address indexed _id,\r\n        string _make,\r\n        string _model,\r\n        uint _price,\r\n        string _location\r\n    );\r\n    \r\n    // Status of the vehicle \r\n    enum VehicleState { active, inactive, idle }\r\n\r\n    // mapping to store the rentals\r\n    mapping (uint => Rental) rentals;\r\n\r\n    // mapping to store the vehicles\r\n    mapping (address => Vehicle) public vehicles;\r\n    \r\n    // mapping to store the users\r\n    mapping (address => User) users;\r\n    \r\n    // number of vehicles\r\n    uint public numVehicles = 0;\r\n    \r\n    // sequence number of rentals\r\n    uint rentalseq;\r\n    \r\n    // number of owners with listing of vehicles\r\n    address[] public vehicleAccts;\r\n    \r\n    // Register the user\r\n    function setUser(\r\n        address addr, \r\n        string memory fName, \r\n        string memory lName, \r\n        string memory licenceNo, \r\n        string memory dob\r\n    ) public {\r\n        users[addr] = User(fName, lName, licenceNo, dob);\r\n    }\r\n    \r\n    function getUser (address addr) public view returns (address, string memory, string memory, string memory, string memory) {\r\n        return (addr, users[addr].fName, users[addr].lName, users[addr].licenceNo, users[addr].dob);\r\n    }\r\n\r\n    // hire a vehicle\r\n    function setHire(\r\n        address driver,\r\n        address vehicle,   // vehicle is the same as owner's key\r\n        string memory start_date_time, \r\n        string memory end_date_time, \r\n        string memory location\r\n    ) public payable  {\r\n        rentalseq++;\r\n\r\n        rentals[rentalseq] = Rental(driver, vehicle, start_date_time, end_date_time, location);\r\n    }\r\n    \r\n    function getHire(uint rentalNo) public view returns (address, address, string memory, string memory, uint, string memory) {\r\n        \r\n        address vehicle = rentals[rentalNo].vehicle;\r\n        Vehicle memory vehicleInfo = vehicles[vehicle];\r\n        \r\n        return ( \r\n            rentals[rentalNo].driver,\r\n            rentals[rentalNo].vehicle, \r\n            rentals[rentalNo].start_date_time, \r\n            rentals[rentalNo].end_date_time,\r\n            vehicleInfo.price,\r\n            vehicleInfo.location // or is it rentals[rentalNo].location?\r\n        );\r\n    }\r\n\r\n    // register the vehicle onto the blockhain    \r\n    function setVehicle(string memory make, string memory model, uint price, string memory location) public {\r\n        numVehicles++; // Is this used?\r\n\r\n        Vehicle storage vehicle = vehicles[msg.sender];\r\n        \r\n        vehicle.make = make;\r\n        vehicle.model = model;\r\n        vehicle.price = price;\r\n        vehicle.location = location;\r\n        vehicle.registered = true;\r\n\r\n        emit getVeh(msg.sender, make, model, price, location);\r\n\r\n        vehicleAccts.push(msg.sender);        \r\n    }\r\n    \r\n    function getVehicle(address owner) public view returns (string memory, string memory, uint, string memory) {\r\n        return (vehicles[owner].make, vehicles[owner].model, vehicles[owner].price, vehicles[owner].location);\r\n    }\r\n\r\n    function isRegistered(address owner) public view returns (bool) {\r\n        return vehicles[owner].registered;\r\n    }\r\n\r\n    function vehicleList() public view returns(address[] memory) {\r\n        return vehicleAccts;\r\n    }\r\n\r\n}",
  "sourcePath": "C:/Users/jayal/Projects/EtherRide/contracts/Rideshare.sol",
  "compiler": {
    "name": "solc",
    "version": "0.5.0+commit.1d4f565a.Emscripten.clang"
  },
  "schemaVersion": "3.0.0",
  "updatedAt": "2019-02-16T17:40:42.504Z",
  "devdoc": {
    "methods": {}
  },
  "userdoc": {
    "methods": {}
  }
}