{
  "contractName": "Vehicleshare",
  "abi": [
    {
      "constant": true,
      "inputs": [
        {
          "name": "",
          "type": "address"
        }
      ],
      "name": "vehicles",
      "outputs": [
        {
          "name": "make",
          "type": "string"
        },
        {
          "name": "model",
          "type": "string"
        },
        {
          "name": "price",
          "type": "uint256"
        },
        {
          "name": "location",
          "type": "string"
        },
        {
          "name": "state",
          "type": "uint8"
        },
        {
          "name": "registered",
          "type": "bool"
        }
      ],
      "payable": false,
      "stateMutability": "view",
      "type": "function",
      "signature": "0x028e7768"
    },
    {
      "constant": true,
      "inputs": [],
      "name": "numVehicles",
      "outputs": [
        {
          "name": "",
          "type": "uint256"
        }
      ],
      "payable": false,
      "stateMutability": "view",
      "type": "function",
      "signature": "0x3e5d9c95"
    },
    {
      "constant": true,
      "inputs": [
        {
          "name": "",
          "type": "uint256"
        }
      ],
      "name": "vehicleAccts",
      "outputs": [
        {
          "name": "",
          "type": "address"
        }
      ],
      "payable": false,
      "stateMutability": "view",
      "type": "function",
      "signature": "0x5e837575"
    },
    {
      "anonymous": false,
      "inputs": [
        {
          "indexed": true,
          "name": "_id",
          "type": "address"
        },
        {
          "indexed": false,
          "name": "_make",
          "type": "string"
        },
        {
          "indexed": false,
          "name": "_model",
          "type": "string"
        },
        {
          "indexed": false,
          "name": "_price",
          "type": "uint256"
        },
        {
          "indexed": false,
          "name": "_location",
          "type": "string"
        }
      ],
      "name": "getVeh",
      "type": "event",
      "signature": "0x8b0f3bd08090bd8a9efca178b6f124e5e3e05d1b38f6cdf99c27c29dec9a2a8c"
    },
    {
      "anonymous": false,
      "inputs": [
        {
          "indexed": true,
          "name": "id",
          "type": "uint256"
        },
        {
          "indexed": false,
          "name": "driver",
          "type": "address"
        },
        {
          "indexed": false,
          "name": "vehicle",
          "type": "address"
        },
        {
          "indexed": false,
          "name": "start_date_time",
          "type": "string"
        },
        {
          "indexed": false,
          "name": "end_date_time",
          "type": "string"
        },
        {
          "indexed": false,
          "name": "location",
          "type": "string"
        },
        {
          "indexed": false,
          "name": "price",
          "type": "uint256"
        },
        {
          "indexed": false,
          "name": "cost",
          "type": "uint256"
        },
        {
          "indexed": false,
          "name": "notifyOwner",
          "type": "bool"
        },
        {
          "indexed": false,
          "name": "notifyDriver",
          "type": "bool"
        }
      ],
      "name": "getRentals",
      "type": "event",
      "signature": "0x8aab3d6e43caf7a73c121d10a2cbb4aff749874a8677597aa8fd8e02d8cab632"
    },
    {
      "anonymous": false,
      "inputs": [
        {
          "indexed": true,
          "name": "rentalId",
          "type": "uint256"
        },
        {
          "indexed": true,
          "name": "driver",
          "type": "address"
        },
        {
          "indexed": false,
          "name": "owner",
          "type": "address"
        },
        {
          "indexed": false,
          "name": "start_date_time",
          "type": "string"
        },
        {
          "indexed": false,
          "name": "end_date_time",
          "type": "string"
        }
      ],
      "name": "notifyOwner",
      "type": "event",
      "signature": "0x28f4c38a62473bb163a3065a527f8880bd537ee18e76c8fa6ecaddaec021f559"
    },
    {
      "anonymous": false,
      "inputs": [
        {
          "indexed": true,
          "name": "rentalId",
          "type": "uint256"
        },
        {
          "indexed": false,
          "name": "make",
          "type": "string"
        },
        {
          "indexed": false,
          "name": "model",
          "type": "string"
        },
        {
          "indexed": false,
          "name": "owner",
          "type": "address"
        },
        {
          "indexed": false,
          "name": "driver",
          "type": "address"
        }
      ],
      "name": "notifyDriver",
      "type": "event",
      "signature": "0x55b6c4ff0a679c4a99de18f3e0906af92174aa66eac3d3cb86afc8227ca3f655"
    },
    {
      "constant": false,
      "inputs": [
        {
          "name": "addr",
          "type": "address"
        },
        {
          "name": "fName",
          "type": "string"
        },
        {
          "name": "lName",
          "type": "string"
        },
        {
          "name": "licenceNo",
          "type": "string"
        },
        {
          "name": "dob",
          "type": "string"
        }
      ],
      "name": "setUser",
      "outputs": [],
      "payable": false,
      "stateMutability": "nonpayable",
      "type": "function",
      "signature": "0x7a60dd35"
    },
    {
      "constant": true,
      "inputs": [
        {
          "name": "addr",
          "type": "address"
        }
      ],
      "name": "getUser",
      "outputs": [
        {
          "name": "",
          "type": "address"
        },
        {
          "name": "",
          "type": "string"
        },
        {
          "name": "",
          "type": "string"
        },
        {
          "name": "",
          "type": "string"
        },
        {
          "name": "",
          "type": "string"
        }
      ],
      "payable": false,
      "stateMutability": "view",
      "type": "function",
      "signature": "0x6f77926b"
    },
    {
      "constant": false,
      "inputs": [
        {
          "name": "owner",
          "type": "address"
        },
        {
          "name": "start_date_time",
          "type": "string"
        },
        {
          "name": "end_date_time",
          "type": "string"
        }
      ],
      "name": "setHire",
      "outputs": [],
      "payable": true,
      "stateMutability": "payable",
      "type": "function",
      "signature": "0xd5251dad"
    },
    {
      "constant": true,
      "inputs": [
        {
          "name": "rentalNo",
          "type": "uint256"
        }
      ],
      "name": "getHire",
      "outputs": [
        {
          "name": "",
          "type": "address"
        },
        {
          "name": "",
          "type": "address"
        },
        {
          "name": "",
          "type": "string"
        },
        {
          "name": "",
          "type": "string"
        },
        {
          "name": "",
          "type": "string"
        },
        {
          "name": "",
          "type": "uint256"
        }
      ],
      "payable": false,
      "stateMutability": "view",
      "type": "function",
      "signature": "0xc87cacbc"
    },
    {
      "constant": false,
      "inputs": [
        {
          "name": "make",
          "type": "string"
        },
        {
          "name": "model",
          "type": "string"
        },
        {
          "name": "price",
          "type": "uint256"
        },
        {
          "name": "location",
          "type": "string"
        }
      ],
      "name": "setVehicle",
      "outputs": [],
      "payable": false,
      "stateMutability": "nonpayable",
      "type": "function",
      "signature": "0xfeca3f5c"
    },
    {
      "constant": true,
      "inputs": [
        {
          "name": "owner",
          "type": "address"
        }
      ],
      "name": "getVehicle",
      "outputs": [
        {
          "name": "",
          "type": "string"
        },
        {
          "name": "",
          "type": "string"
        },
        {
          "name": "",
          "type": "uint256"
        },
        {
          "name": "",
          "type": "string"
        }
      ],
      "payable": false,
      "stateMutability": "view",
      "type": "function",
      "signature": "0xa93ab101"
    },
    {
      "constant": true,
      "inputs": [
        {
          "name": "owner",
          "type": "address"
        }
      ],
      "name": "isRegistered",
      "outputs": [
        {
          "name": "",
          "type": "bool"
        }
      ],
      "payable": false,
      "stateMutability": "view",
      "type": "function",
      "signature": "0xc3c5a547"
    },
    {
      "constant": false,
      "inputs": [
        {
          "name": "driver",
          "type": "address"
        },
        {
          "name": "rentalId",
          "type": "uint256"
        }
      ],
      "name": "acceptDriver",
      "outputs": [
        {
          "name": "",
          "type": "bool"
        }
      ],
      "payable": false,
      "stateMutability": "nonpayable",
      "type": "function",
      "signature": "0xe6d647a5"
    },
    {
      "constant": false,
      "inputs": [
        {
          "name": "owner",
          "type": "address"
        }
      ],
      "name": "confirmRequest",
      "outputs": [],
      "payable": false,
      "stateMutability": "nonpayable",
      "type": "function",
      "signature": "0x987fa1ed"
    },
    {
      "constant": false,
      "inputs": [],
      "name": "cancelRequest",
      "outputs": [],
      "payable": true,
      "stateMutability": "payable",
      "type": "function",
      "signature": "0x851b16f5"
    }
  ],
  "bytecode": "0x6080604052600060035534801561001557600080fd5b50612bb7806100256000396000f3fe6080604052600436106100c5576000357c0100000000000000000000000000000000000000000000000000000000900463ffffffff168063028e7768146100ca5780633e5d9c95146102935780635e837575146102be5780636f77926b146103395780637a60dd351461057a578063851b16f514610827578063987fa1ed14610831578063a93ab10114610882578063c3c5a54714610a2b578063c87cacbc14610a94578063d5251dad14610c8d578063e6d647a514610dff578063feca3f5c14610e72575b600080fd5b3480156100d657600080fd5b50610119600480360360208110156100ed57600080fd5b81019080803573ffffffffffffffffffffffffffffffffffffffff169060200190929190505050611072565b6040518080602001806020018781526020018060200186600281111561013b57fe5b60ff1681526020018515151515815260200184810384528a818151815260200191508051906020019080838360005b8381101561018557808201518184015260208101905061016a565b50505050905090810190601f1680156101b25780820380516001836020036101000a031916815260200191505b50848103835289818151815260200191508051906020019080838360005b838110156101eb5780820151818401526020810190506101d0565b50505050905090810190601f1680156102185780820380516001836020036101000a031916815260200191505b50848103825287818151815260200191508051906020019080838360005b83811015610251578082015181840152602081019050610236565b50505050905090810190601f16801561027e5780820380516001836020036101000a031916815260200191505b50995050505050505050505060405180910390f35b34801561029f57600080fd5b506102a8611290565b6040518082815260200191505060405180910390f35b3480156102ca57600080fd5b506102f7600480360360208110156102e157600080fd5b8101908080359060200190929190505050611296565b604051808273ffffffffffffffffffffffffffffffffffffffff1673ffffffffffffffffffffffffffffffffffffffff16815260200191505060405180910390f35b34801561034557600080fd5b506103886004803603602081101561035c57600080fd5b81019080803573ffffffffffffffffffffffffffffffffffffffff1690602001909291905050506112d4565b604051808673ffffffffffffffffffffffffffffffffffffffff1673ffffffffffffffffffffffffffffffffffffffff16815260200180602001806020018060200180602001858103855289818151815260200191508051906020019080838360005b838110156104065780820151818401526020810190506103eb565b50505050905090810190601f1680156104335780820380516001836020036101000a031916815260200191505b50858103845288818151815260200191508051906020019080838360005b8381101561046c578082015181840152602081019050610451565b50505050905090810190601f1680156104995780820380516001836020036101000a031916815260200191505b50858103835287818151815260200191508051906020019080838360005b838110156104d25780820151818401526020810190506104b7565b50505050905090810190601f1680156104ff5780820380516001836020036101000a031916815260200191505b50858103825286818151815260200191508051906020019080838360005b8381101561053857808201518184015260208101905061051d565b50505050905090810190601f1680156105655780820380516001836020036101000a031916815260200191505b50995050505050505050505060405180910390f35b34801561058657600080fd5b50610825600480360360a081101561059d57600080fd5b81019080803573ffffffffffffffffffffffffffffffffffffffff169060200190929190803590602001906401000000008111156105da57600080fd5b8201836020820111156105ec57600080fd5b8035906020019184600183028401116401000000008311171561060e57600080fd5b91908080601f016020809104026020016040519081016040528093929190818152602001838380828437600081840152601f19601f8201169050808301925050505050505091929192908035906020019064010000000081111561067157600080fd5b82018360208201111561068357600080fd5b803590602001918460018302840111640100000000831117156106a557600080fd5b91908080601f016020809104026020016040519081016040528093929190818152602001838380828437600081840152601f19601f8201169050808301925050505050505091929192908035906020019064010000000081111561070857600080fd5b82018360208201111561071a57600080fd5b8035906020019184600183028401116401000000008311171561073c57600080fd5b91908080601f016020809104026020016040519081016040528093929190818152602001838380828437600081840152601f19601f8201169050808301925050505050505091929192908035906020019064010000000081111561079f57600080fd5b8201836020820111156107b157600080fd5b803590602001918460018302840111640100000000831117156107d357600080fd5b91908080601f016020809104026020016040519081016040528093929190818152602001838380828437600081840152601f19601f820116905080830192505050505050509192919290505050611668565b005b61082f611747565b005b34801561083d57600080fd5b506108806004803603602081101561085457600080fd5b81019080803573ffffffffffffffffffffffffffffffffffffffff1690602001909291905050506117a7565b005b34801561088e57600080fd5b506108d1600480360360208110156108a557600080fd5b81019080803573ffffffffffffffffffffffffffffffffffffffff169060200190929190505050611808565b60405180806020018060200185815260200180602001848103845288818151815260200191508051906020019080838360005b8381101561091f578082015181840152602081019050610904565b50505050905090810190601f16801561094c5780820380516001836020036101000a031916815260200191505b50848103835287818151815260200191508051906020019080838360005b8381101561098557808201518184015260208101905061096a565b50505050905090810190601f1680156109b25780820380516001836020036101000a031916815260200191505b50848103825285818151815260200191508051906020019080838360005b838110156109eb5780820151818401526020810190506109d0565b50505050905090810190601f168015610a185780820380516001836020036101000a031916815260200191505b5097505050505050505060405180910390f35b348015610a3757600080fd5b50610a7a60048036036020811015610a4e57600080fd5b81019080803573ffffffffffffffffffffffffffffffffffffffff169060200190929190505050611afb565b604051808215151515815260200191505060405180910390f35b348015610aa057600080fd5b50610acd60048036036020811015610ab757600080fd5b8101908080359060200190929190505050611b54565b604051808773ffffffffffffffffffffffffffffffffffffffff1673ffffffffffffffffffffffffffffffffffffffff1681526020018673ffffffffffffffffffffffffffffffffffffffff1673ffffffffffffffffffffffffffffffffffffffff168152602001806020018060200180602001858152602001848103845288818151815260200191508051906020019080838360005b83811015610b7f578082015181840152602081019050610b64565b50505050905090810190601f168015610bac5780820380516001836020036101000a031916815260200191505b50848103835287818151815260200191508051906020019080838360005b83811015610be5578082015181840152602081019050610bca565b50505050905090810190601f168015610c125780820380516001836020036101000a031916815260200191505b50848103825286818151815260200191508051906020019080838360005b83811015610c4b578082015181840152602081019050610c30565b50505050905090810190601f168015610c785780820380516001836020036101000a031916815260200191505b50995050505050505050505060405180910390f35b610dfd60048036036060811015610ca357600080fd5b81019080803573ffffffffffffffffffffffffffffffffffffffff16906020019092919080359060200190640100000000811115610ce057600080fd5b820183602082011115610cf257600080fd5b80359060200191846001830284011164010000000083111715610d1457600080fd5b91908080601f016020809104026020016040519081016040528093929190818152602001838380828437600081840152601f19601f82011690508083019250505050505050919291929080359060200190640100000000811115610d7757600080fd5b820183602082011115610d8957600080fd5b80359060200191846001830284011164010000000083111715610dab57600080fd5b91908080601f016020809104026020016040519081016040528093929190818152602001838380828437600081840152601f19601f820116905080830192505050505050509192919290505050611e08565b005b348015610e0b57600080fd5b50610e5860048036036040811015610e2257600080fd5b81019080803573ffffffffffffffffffffffffffffffffffffffff1690602001909291908035906020019092919050505061245b565b604051808215151515815260200191505060405180910390f35b348015610e7e57600080fd5b5061107060048036036080811015610e9557600080fd5b8101908080359060200190640100000000811115610eb257600080fd5b820183602082011115610ec457600080fd5b80359060200191846001830284011164010000000083111715610ee657600080fd5b91908080601f016020809104026020016040519081016040528093929190818152602001838380828437600081840152601f19601f82011690508083019250505050505050919291929080359060200190640100000000811115610f4957600080fd5b820183602082011115610f5b57600080fd5b80359060200191846001830284011164010000000083111715610f7d57600080fd5b91908080601f016020809104026020016040519081016040528093929190818152602001838380828437600081840152601f19601f8201169050808301925050505050505091929192908035906020019092919080359060200190640100000000811115610fea57600080fd5b820183602082011115610ffc57600080fd5b8035906020019184600183028401116401000000008311171561101e57600080fd5b91908080601f016020809104026020016040519081016040528093929190818152602001838380828437600081840152601f19601f82011690508083019250505050505050919291929050505061279e565b005b6001602052806000526040600020600091509050806000018054600181600116156101000203166002900480601f01602080910402602001604051908101604052809291908181526020018280546001816001161561010002031660029004801561111e5780601f106110f35761010080835404028352916020019161111e565b820191906000526020600020905b81548152906001019060200180831161110157829003601f168201915b505050505090806001018054600181600116156101000203166002900480601f0160208091040260200160405190810160405280929190818152602001828054600181600116156101000203166002900480156111bc5780601f10611191576101008083540402835291602001916111bc565b820191906000526020600020905b81548152906001019060200180831161119f57829003601f168201915b505050505090806002015490806003018054600181600116156101000203166002900480601f0160208091040260200160405190810160405280929190818152602001828054600181600116156101000203166002900480156112605780601f1061123557610100808354040283529160200191611260565b820191906000526020600020905b81548152906001019060200180831161124357829003601f168201915b5050505050908060040160009054906101000a900460ff16908060040160019054906101000a900460ff16905086565b60035481565b6005818154811015156112a557fe5b906000526020600020016000915054906101000a900473ffffffffffffffffffffffffffffffffffffffff1681565b600060608060608085600260008873ffffffffffffffffffffffffffffffffffffffff1673ffffffffffffffffffffffffffffffffffffffff168152602001908152602001600020600001600260008973ffffffffffffffffffffffffffffffffffffffff1673ffffffffffffffffffffffffffffffffffffffff168152602001908152602001600020600101600260008a73ffffffffffffffffffffffffffffffffffffffff1673ffffffffffffffffffffffffffffffffffffffff168152602001908152602001600020600201600260008b73ffffffffffffffffffffffffffffffffffffffff1673ffffffffffffffffffffffffffffffffffffffff168152602001908152602001600020600301838054600181600116156101000203166002900480601f01602080910402602001604051908101604052809291908181526020018280546001816001161561010002031660029004801561147a5780601f1061144f5761010080835404028352916020019161147a565b820191906000526020600020905b81548152906001019060200180831161145d57829003601f168201915b50505050509350828054600181600116156101000203166002900480601f0160208091040260200160405190810160405280929190818152602001828054600181600116156101000203166002900480156115165780601f106114eb57610100808354040283529160200191611516565b820191906000526020600020905b8154815290600101906020018083116114f957829003601f168201915b50505050509250818054600181600116156101000203166002900480601f0160208091040260200160405190810160405280929190818152602001828054600181600116156101000203166002900480156115b25780601f10611587576101008083540402835291602001916115b2565b820191906000526020600020905b81548152906001019060200180831161159557829003601f168201915b50505050509150808054600181600116156101000203166002900480601f01602080910402602001604051908101604052809291908181526020018280546001816001161561010002031660029004801561164e5780601f106116235761010080835404028352916020019161164e565b820191906000526020600020905b81548152906001019060200180831161163157829003601f168201915b505050505090509450945094509450945091939590929450565b60806040519081016040528085815260200184815260200183815260200182815250600260008773ffffffffffffffffffffffffffffffffffffffff1673ffffffffffffffffffffffffffffffffffffffff16815260200190815260200160002060008201518160000190805190602001906116e5929190612a66565b506020820151816001019080519060200190611702929190612a66565b50604082015181600201908051906020019061171f929190612a66565b50606082015181600301908051906020019061173c929190612a66565b509050505050505050565b3373ffffffffffffffffffffffffffffffffffffffff166108fc3073ffffffffffffffffffffffffffffffffffffffff16319081150290604051600060405180830381858888f193505050501580156117a4573d6000803e3d6000fd5b50565b8073ffffffffffffffffffffffffffffffffffffffff166108fc3073ffffffffffffffffffffffffffffffffffffffff16319081150290604051600060405180830381858888f19350505050158015611804573d6000803e3d6000fd5b5050565b60608060006060600160008673ffffffffffffffffffffffffffffffffffffffff1673ffffffffffffffffffffffffffffffffffffffff168152602001908152602001600020600001600160008773ffffffffffffffffffffffffffffffffffffffff1673ffffffffffffffffffffffffffffffffffffffff168152602001908152602001600020600101600160008873ffffffffffffffffffffffffffffffffffffffff1673ffffffffffffffffffffffffffffffffffffffff16815260200190815260200160002060020154600160008973ffffffffffffffffffffffffffffffffffffffff1673ffffffffffffffffffffffffffffffffffffffff168152602001908152602001600020600301838054600181600116156101000203166002900480601f0160208091040260200160405190810160405280929190818152602001828054600181600116156101000203166002900480156119ad5780601f10611982576101008083540402835291602001916119ad565b820191906000526020600020905b81548152906001019060200180831161199057829003601f168201915b50505050509350828054600181600116156101000203166002900480601f016020809104026020016040519081016040528092919081815260200182805460018160011615610100020316600290048015611a495780601f10611a1e57610100808354040283529160200191611a49565b820191906000526020600020905b815481529060010190602001808311611a2c57829003601f168201915b50505050509250808054600181600116156101000203166002900480601f016020809104026020016040519081016040528092919081815260200182805460018160011615610100020316600290048015611ae55780601f10611aba57610100808354040283529160200191611ae5565b820191906000526020600020905b815481529060010190602001808311611ac857829003601f168201915b5050505050905093509350935093509193509193565b6000600160008373ffffffffffffffffffffffffffffffffffffffff1673ffffffffffffffffffffffffffffffffffffffff16815260200190815260200160002060040160019054906101000a900460ff169050919050565b6000806060806060600080600088815260200190815260200160002060000160009054906101000a900473ffffffffffffffffffffffffffffffffffffffff1660008089815260200190815260200160002060010160009054906101000a900473ffffffffffffffffffffffffffffffffffffffff166000808a81526020019081526020016000206002016000808b81526020019081526020016000206003016000808c81526020019081526020016000206004016000808d815260200190815260200160002060050154838054600181600116156101000203166002900480601f016020809104026020016040519081016040528092919081815260200182805460018160011615610100020316600290048015611cb45780601f10611c8957610100808354040283529160200191611cb4565b820191906000526020600020905b815481529060010190602001808311611c9757829003601f168201915b50505050509350828054600181600116156101000203166002900480601f016020809104026020016040519081016040528092919081815260200182805460018160011615610100020316600290048015611d505780601f10611d2557610100808354040283529160200191611d50565b820191906000526020600020905b815481529060010190602001808311611d3357829003601f168201915b50505050509250818054600181600116156101000203166002900480601f016020809104026020016040519081016040528092919081815260200182805460018160011615610100020316600290048015611dec5780601f10611dc157610100808354040283529160200191611dec565b820191906000526020600020905b815481529060010190602001808311611dcf57829003601f168201915b5050505050915095509550955095509550955091939550919395565b60046000815480929190600101919050555060c0604051908101604052803373ffffffffffffffffffffffffffffffffffffffff1681526020018473ffffffffffffffffffffffffffffffffffffffff168152602001838152602001828152602001600160008673ffffffffffffffffffffffffffffffffffffffff1673ffffffffffffffffffffffffffffffffffffffff1681526020019081526020016000206003018054600181600116156101000203166002900480601f016020809104026020016040519081016040528092919081815260200182805460018160011615610100020316600290048015611f405780601f10611f1557610100808354040283529160200191611f40565b820191906000526020600020905b815481529060010190602001808311611f2357829003601f168201915b5050505050815260200134815250600080600454815260200190815260200160002060008201518160000160006101000a81548173ffffffffffffffffffffffffffffffffffffffff021916908373ffffffffffffffffffffffffffffffffffffffff16021790555060208201518160010160006101000a81548173ffffffffffffffffffffffffffffffffffffffff021916908373ffffffffffffffffffffffffffffffffffffffff160217905550604082015181600201908051906020019061200c929190612a66565b506060820151816003019080519060200190612029929190612a66565b506080820151816004019080519060200190612046929190612a66565b5060a082015181600501559050503373ffffffffffffffffffffffffffffffffffffffff166004547f28f4c38a62473bb163a3065a527f8880bd537ee18e76c8fa6ecaddaec021f559858585604051808473ffffffffffffffffffffffffffffffffffffffff1673ffffffffffffffffffffffffffffffffffffffff1681526020018060200180602001838103835285818151815260200191508051906020019080838360005b838110156121085780820151818401526020810190506120ed565b50505050905090810190601f1680156121355780820380516001836020036101000a031916815260200191505b50838103825284818151815260200191508051906020019080838360005b8381101561216e578082015181840152602081019050612153565b50505050905090810190601f16801561219b5780820380516001836020036101000a031916815260200191505b509550505050505060405180910390a36004547f8aab3d6e43caf7a73c121d10a2cbb4aff749874a8677597aa8fd8e02d8cab63233858585600160008a73ffffffffffffffffffffffffffffffffffffffff1673ffffffffffffffffffffffffffffffffffffffff168152602001908152602001600020600301600160008b73ffffffffffffffffffffffffffffffffffffffff1673ffffffffffffffffffffffffffffffffffffffff168152602001908152602001600020600201543460016000604051808a73ffffffffffffffffffffffffffffffffffffffff1673ffffffffffffffffffffffffffffffffffffffff1681526020018973ffffffffffffffffffffffffffffffffffffffff1673ffffffffffffffffffffffffffffffffffffffff168152602001806020018060200180602001888152602001878152602001861515151581526020018515151515815260200184810384528b818151815260200191508051906020019080838360005b8381101561232957808201518184015260208101905061230e565b50505050905090810190601f1680156123565780820380516001836020036101000a031916815260200191505b5084810383528a818151815260200191508051906020019080838360005b8381101561238f578082015181840152602081019050612374565b50505050905090810190601f1680156123bc5780820380516001836020036101000a031916815260200191505b5084810382528981815460018160011615610100020316600290048152602001915080546001816001161561010002031660029004801561243e5780601f106124135761010080835404028352916020019161243e565b820191906000526020600020905b81548152906001019060200180831161242157829003601f168201915b50509c5050505050505050505050505060405180910390a2505050565b6000803390506060600160008373ffffffffffffffffffffffffffffffffffffffff1673ffffffffffffffffffffffffffffffffffffffff1681526020019081526020016000206000018054600181600116156101000203166002900480601f0160208091040260200160405190810160405280929190818152602001828054600181600116156101000203166002900480156125395780601f1061250e57610100808354040283529160200191612539565b820191906000526020600020905b81548152906001019060200180831161251c57829003601f168201915b505050505090506060600160008473ffffffffffffffffffffffffffffffffffffffff1673ffffffffffffffffffffffffffffffffffffffff1681526020019081526020016000206001018054600181600116156101000203166002900480601f0160208091040260200160405190810160405280929190818152602001828054600181600116156101000203166002900480156126185780601f106125ed57610100808354040283529160200191612618565b820191906000526020600020905b8154815290600101906020018083116125fb57829003601f168201915b50505050509050847f55b6c4ff0a679c4a99de18f3e0906af92174aa66eac3d3cb86afc8227ca3f6558383868a6040518080602001806020018573ffffffffffffffffffffffffffffffffffffffff1673ffffffffffffffffffffffffffffffffffffffff1681526020018473ffffffffffffffffffffffffffffffffffffffff1673ffffffffffffffffffffffffffffffffffffffff168152602001838103835287818151815260200191508051906020019080838360005b838110156126ed5780820151818401526020810190506126d2565b50505050905090810190601f16801561271a5780820380516001836020036101000a031916815260200191505b50838103825286818151815260200191508051906020019080838360005b83811015612753578082015181840152602081019050612738565b50505050905090810190601f1680156127805780820380516001836020036101000a031916815260200191505b50965050505050505060405180910390a26001935050505092915050565b6003600081548092919060010191905055506000600160003373ffffffffffffffffffffffffffffffffffffffff1673ffffffffffffffffffffffffffffffffffffffff16815260200190815260200160002090508481600001908051906020019061280b929190612ae6565b5083816001019080519060200190612824929190612ae6565b5082816002018190555081816003019080519060200190612846929190612ae6565b5060018160040160016101000a81548160ff0219169083151502179055503373ffffffffffffffffffffffffffffffffffffffff167f8b0f3bd08090bd8a9efca178b6f124e5e3e05d1b38f6cdf99c27c29dec9a2a8c8686868660405180806020018060200185815260200180602001848103845288818151815260200191508051906020019080838360005b838110156128ee5780820151818401526020810190506128d3565b50505050905090810190601f16801561291b5780820380516001836020036101000a031916815260200191505b50848103835287818151815260200191508051906020019080838360005b83811015612954578082015181840152602081019050612939565b50505050905090810190601f1680156129815780820380516001836020036101000a031916815260200191505b50848103825285818151815260200191508051906020019080838360005b838110156129ba57808201518184015260208101905061299f565b50505050905090810190601f1680156129e75780820380516001836020036101000a031916815260200191505b5097505050505050505060405180910390a260053390806001815401808255809150509060018203906000526020600020016000909192909190916101000a81548173ffffffffffffffffffffffffffffffffffffffff021916908373ffffffffffffffffffffffffffffffffffffffff160217905550505050505050565b828054600181600116156101000203166002900490600052602060002090601f016020900481019282601f10612aa757805160ff1916838001178555612ad5565b82800160010185558215612ad5579182015b82811115612ad4578251825591602001919060010190612ab9565b5b509050612ae29190612b66565b5090565b828054600181600116156101000203166002900490600052602060002090601f016020900481019282601f10612b2757805160ff1916838001178555612b55565b82800160010185558215612b55579182015b82811115612b54578251825591602001919060010190612b39565b5b509050612b629190612b66565b5090565b612b8891905b80821115612b84576000816000905550600101612b6c565b5090565b9056fea165627a7a72305820533085a9417f6a7fb4df53185f0a45a4fedbc0c5291e325a5e4c240b8ae7a1a00029",
  "source": "pragma solidity ^0.5.0;\r\n\r\ncontract Vehicleshare {\r\n\r\n    struct Vehicle {\r\n        string make;\r\n        string model;\r\n        uint price;\r\n        string location; // locating is converted from string to address using parseAddress string\r\n        VehicleState state; // status of the vehicle. Has to be idle to hire vehicle\r\n        bool registered;\r\n    }\r\n    \r\n    struct User {\r\n        string fName;\r\n        string lName;\r\n        string licenceNo;\r\n        string dob;\r\n    }\r\n    \r\n    struct Rental {\r\n        address driver;\r\n        address vehicle;\r\n        string start_date_time;\r\n        string end_date_time;\r\n        string location;\r\n        uint cost;\r\n    }\r\n\r\n    event getVeh (\r\n        address indexed _id,\r\n        string _make,\r\n        string _model,\r\n        uint _price,\r\n        string _location\r\n    );\r\n    \r\n    event getRentals (\r\n        uint indexed id,\r\n        address driver,\r\n        address vehicle,\r\n        string start_date_time,\r\n        string end_date_time,\r\n        string location,\r\n        uint price,\r\n        uint cost,\r\n        bool notifyOwner,\r\n        bool notifyDriver\r\n    );\r\n    event notifyOwner (\r\n        uint indexed rentalId,\r\n        address indexed driver,\r\n        address owner,\r\n        string start_date_time,\r\n        string end_date_time\r\n    );\r\n    \r\n    event notifyDriver (\r\n        uint indexed rentalId,\r\n        string make,\r\n        string model,\r\n        address owner,\r\n        address driver\r\n    );\r\n    \r\n    // Status of the vehicle \r\n    enum VehicleState { active, inactive, idle }\r\n\r\n    // mapping to store the rentals\r\n    mapping (uint => Rental) rentals;\r\n\r\n    // mapping to store the vehicles\r\n    mapping (address => Vehicle) public vehicles;\r\n    \r\n    // mapping to store the users\r\n    mapping (address => User) users;\r\n    \r\n    // number of vehicles\r\n    uint public numVehicles = 0;\r\n    \r\n    // sequence number of rentals\r\n    uint rentalseq;\r\n    \r\n    // number of owners with listing of vehicles\r\n    address[] public vehicleAccts;\r\n    \r\n    // Register the user\r\n    function setUser(\r\n        address addr, \r\n        string memory fName, \r\n        string memory lName, \r\n        string memory licenceNo, \r\n        string memory dob\r\n    ) public {\r\n        users[addr] = User(fName, lName, licenceNo, dob);\r\n    }\r\n    \r\n    function getUser (address addr) public view returns (address, string memory, string memory, string memory, string memory) {\r\n        return (addr, users[addr].fName, users[addr].lName, users[addr].licenceNo, users[addr].dob);\r\n    }\r\n\r\n    // hire a vehicle\r\n    function setHire(\r\n        address owner,   // vehicle is the same as owner's key\r\n        string memory start_date_time, \r\n        string memory end_date_time \r\n        // uint cost\r\n    ) public payable  {\r\n        rentalseq++;\r\n        \r\n        // address driver = msg.sender; \r\n        rentals[rentalseq] = Rental(msg.sender, owner, start_date_time, end_date_time, vehicles[owner].location, msg.value);\r\n        emit notifyOwner(rentalseq, msg.sender, owner, start_date_time, end_date_time);\r\n        emit getRentals(rentalseq, msg.sender, owner, start_date_time, end_date_time, vehicles[owner].location, vehicles[owner].price, msg.value, true, false);\r\n    }\r\n    \r\n    function getHire(uint rentalNo) public view returns (address, address, string memory, string memory, string memory, uint) {\r\n        \r\n        // address vehicle = rentals[rentalNo].vehicle;\r\n        // Vehicle memory vehicleInfo = vehicles[vehicle]; // will this be needed?\r\n        \r\n        return (\r\n            rentals[rentalNo].driver,\r\n            rentals[rentalNo].vehicle, \r\n            rentals[rentalNo].start_date_time, \r\n            rentals[rentalNo].end_date_time,\r\n            rentals[rentalNo].location,\r\n            rentals[rentalNo].cost\r\n            // vehicleInfo.price\r\n        );\r\n    }\r\n\r\n    // register the vehicle onto the blockhain    \r\n    function setVehicle(string memory make, string memory model, uint price, string memory location) public {\r\n        numVehicles++; // Is this used?\r\n\r\n        Vehicle storage vehicle = vehicles[msg.sender];\r\n        \r\n        vehicle.make = make;\r\n        vehicle.model = model;\r\n        vehicle.price = price;\r\n        vehicle.location = location;\r\n        vehicle.registered = true;\r\n\r\n        emit getVeh(msg.sender, make, model, price, location);\r\n\r\n        vehicleAccts.push(msg.sender);        \r\n    }\r\n    \r\n    function getVehicle(address owner) public view returns (string memory, string memory, uint, string memory) {\r\n        return (vehicles[owner].make, vehicles[owner].model, vehicles[owner].price, vehicles[owner].location);\r\n    }\r\n\r\n    function isRegistered(address owner) public view returns (bool) {\r\n        return vehicles[owner].registered;\r\n    }\r\n\r\n    // function vehicleList() public view returns(address[] memory) {\r\n    //     return vehicleAccts;\r\n    // }\r\n    \r\n    function acceptDriver(address driver, uint rentalId) public returns (bool) {\r\n        address owner = msg.sender;\r\n        string memory make = vehicles[owner].make;\r\n        string memory model = vehicles[owner].model;\r\n        emit notifyDriver(rentalId, make, model, owner, driver);\r\n        // driver.transfer(address(this).balance);\r\n        return true;\r\n    }\r\n\r\n    function confirmRequest(address payable owner) public {\r\n        // rentals[rentalId].vehicle\r\n        owner.transfer(address(this).balance);\r\n    }\r\n\r\n    // function makePayment(address payable sendTo) public payable {\r\n    //     sendTo.transfer(msg.value);\r\n    // }\r\n\r\n    function cancelRequest() public payable {\r\n        msg.sender.transfer(address(this).balance);\r\n    }\r\n\r\n    // function checkOwnerRequest(address owner, uint rentalId) public view returns (bool) {\r\n    //     // Rental storage rental = rentals[rentalId];\r\n    //     if(rentals[rentalId].vehicle == owner){\r\n    //         return true;\r\n    //     }else {\r\n    //         return false;\r\n    //     }\r\n    // }\r\n\r\n    // function checkDriverRequest(address driver, uint rentalId) public view returns (bool) {\r\n    //     // Rental storage rental = rentals[rentalId];\r\n    //     if(rentals[rentalId].driver == driver){\r\n    //         return true;\r\n    //     }else {\r\n    //         return false;\r\n    //     }\r\n    // }\r\n\r\n    // function getBalance(address _user) public view returns (uint){\r\n    //     return _user.balance;\r\n    // }\r\n    \r\n    // function balanceOf() public view returns(uint) {\r\n    //     return address(this).balance;\r\n    // }\r\n\r\n}",
  "sourcePath": "C:/Users/jayal/Projects/EtherRide/contracts/Vehicleshare.sol",
  "compiler": {
    "name": "solc",
    "version": "0.5.0+commit.1d4f565a.Emscripten.clang"
  },
  "schemaVersion": "3.0.0",
  "updatedAt": "2019-03-05T15:43:28.097Z",
  "devdoc": {
    "methods": {}
  },
  "userdoc": {
    "methods": {}
  }
}