{
  "contractName": "Vehicleshare",
  "abi": [
    {
      "constant": true,
      "inputs": [
        {
          "name": "",
          "type": "address"
        }
      ],
      "name": "vehicles",
      "outputs": [
        {
          "name": "make",
          "type": "string"
        },
        {
          "name": "model",
          "type": "string"
        },
        {
          "name": "price",
          "type": "uint256"
        },
        {
          "name": "location",
          "type": "string"
        },
        {
          "name": "state",
          "type": "uint8"
        },
        {
          "name": "registered",
          "type": "bool"
        }
      ],
      "payable": false,
      "stateMutability": "view",
      "type": "function",
      "signature": "0x028e7768"
    },
    {
      "constant": true,
      "inputs": [],
      "name": "numVehicles",
      "outputs": [
        {
          "name": "",
          "type": "uint256"
        }
      ],
      "payable": false,
      "stateMutability": "view",
      "type": "function",
      "signature": "0x3e5d9c95"
    },
    {
      "constant": true,
      "inputs": [
        {
          "name": "",
          "type": "uint256"
        }
      ],
      "name": "vehicleAccts",
      "outputs": [
        {
          "name": "",
          "type": "address"
        }
      ],
      "payable": false,
      "stateMutability": "view",
      "type": "function",
      "signature": "0x5e837575"
    },
    {
      "anonymous": false,
      "inputs": [
        {
          "indexed": true,
          "name": "_id",
          "type": "address"
        },
        {
          "indexed": false,
          "name": "_make",
          "type": "string"
        },
        {
          "indexed": false,
          "name": "_model",
          "type": "string"
        },
        {
          "indexed": false,
          "name": "_price",
          "type": "uint256"
        },
        {
          "indexed": false,
          "name": "_location",
          "type": "string"
        }
      ],
      "name": "getVeh",
      "type": "event",
      "signature": "0x8b0f3bd08090bd8a9efca178b6f124e5e3e05d1b38f6cdf99c27c29dec9a2a8c"
    },
    {
      "anonymous": false,
      "inputs": [
        {
          "indexed": true,
          "name": "rentalId",
          "type": "uint256"
        },
        {
          "indexed": true,
          "name": "driver",
          "type": "address"
        },
        {
          "indexed": false,
          "name": "owner",
          "type": "address"
        },
        {
          "indexed": false,
          "name": "start_date_time",
          "type": "string"
        },
        {
          "indexed": false,
          "name": "end_date_time",
          "type": "string"
        }
      ],
      "name": "notifyOwner",
      "type": "event",
      "signature": "0x28f4c38a62473bb163a3065a527f8880bd537ee18e76c8fa6ecaddaec021f559"
    },
    {
      "anonymous": false,
      "inputs": [
        {
          "indexed": true,
          "name": "rentalId",
          "type": "uint256"
        }
      ],
      "name": "notifyDriver",
      "type": "event",
      "signature": "0x484a69eb64d7b55563b6ba93560b9ed645531b7fad01ca541d47bd29e118bca9"
    },
    {
      "constant": false,
      "inputs": [
        {
          "name": "addr",
          "type": "address"
        },
        {
          "name": "fName",
          "type": "string"
        },
        {
          "name": "lName",
          "type": "string"
        },
        {
          "name": "licenceNo",
          "type": "string"
        },
        {
          "name": "dob",
          "type": "string"
        }
      ],
      "name": "setUser",
      "outputs": [],
      "payable": false,
      "stateMutability": "nonpayable",
      "type": "function",
      "signature": "0x7a60dd35"
    },
    {
      "constant": true,
      "inputs": [
        {
          "name": "addr",
          "type": "address"
        }
      ],
      "name": "getUser",
      "outputs": [
        {
          "name": "",
          "type": "address"
        },
        {
          "name": "",
          "type": "string"
        },
        {
          "name": "",
          "type": "string"
        },
        {
          "name": "",
          "type": "string"
        },
        {
          "name": "",
          "type": "string"
        }
      ],
      "payable": false,
      "stateMutability": "view",
      "type": "function",
      "signature": "0x6f77926b"
    },
    {
      "constant": false,
      "inputs": [
        {
          "name": "owner",
          "type": "address"
        },
        {
          "name": "start_date_time",
          "type": "string"
        },
        {
          "name": "end_date_time",
          "type": "string"
        }
      ],
      "name": "setHire",
      "outputs": [],
      "payable": true,
      "stateMutability": "payable",
      "type": "function",
      "signature": "0xd5251dad"
    },
    {
      "constant": true,
      "inputs": [
        {
          "name": "rentalNo",
          "type": "uint256"
        }
      ],
      "name": "getHire",
      "outputs": [
        {
          "name": "",
          "type": "address"
        },
        {
          "name": "",
          "type": "address"
        },
        {
          "name": "",
          "type": "string"
        },
        {
          "name": "",
          "type": "string"
        },
        {
          "name": "",
          "type": "string"
        },
        {
          "name": "",
          "type": "uint256"
        }
      ],
      "payable": false,
      "stateMutability": "view",
      "type": "function",
      "signature": "0xc87cacbc"
    },
    {
      "constant": false,
      "inputs": [
        {
          "name": "make",
          "type": "string"
        },
        {
          "name": "model",
          "type": "string"
        },
        {
          "name": "price",
          "type": "uint256"
        },
        {
          "name": "location",
          "type": "string"
        }
      ],
      "name": "setVehicle",
      "outputs": [],
      "payable": false,
      "stateMutability": "nonpayable",
      "type": "function",
      "signature": "0xfeca3f5c"
    },
    {
      "constant": true,
      "inputs": [
        {
          "name": "owner",
          "type": "address"
        }
      ],
      "name": "getVehicle",
      "outputs": [
        {
          "name": "",
          "type": "string"
        },
        {
          "name": "",
          "type": "string"
        },
        {
          "name": "",
          "type": "uint256"
        },
        {
          "name": "",
          "type": "string"
        }
      ],
      "payable": false,
      "stateMutability": "view",
      "type": "function",
      "signature": "0xa93ab101"
    },
    {
      "constant": true,
      "inputs": [
        {
          "name": "owner",
          "type": "address"
        }
      ],
      "name": "isRegistered",
      "outputs": [
        {
          "name": "",
          "type": "bool"
        }
      ],
      "payable": false,
      "stateMutability": "view",
      "type": "function",
      "signature": "0xc3c5a547"
    },
    {
      "constant": true,
      "inputs": [],
      "name": "vehicleList",
      "outputs": [
        {
          "name": "",
          "type": "address[]"
        }
      ],
      "payable": false,
      "stateMutability": "view",
      "type": "function",
      "signature": "0x987593a7"
    },
    {
      "constant": false,
      "inputs": [
        {
          "name": "driver",
          "type": "address"
        }
      ],
      "name": "acceptDriver",
      "outputs": [],
      "payable": false,
      "stateMutability": "nonpayable",
      "type": "function",
      "signature": "0x5a18bf8b"
    },
    {
      "constant": false,
      "inputs": [
        {
          "name": "owner",
          "type": "address"
        }
      ],
      "name": "confirmReceived",
      "outputs": [],
      "payable": false,
      "stateMutability": "nonpayable",
      "type": "function",
      "signature": "0x80889348"
    },
    {
      "constant": false,
      "inputs": [
        {
          "name": "sendTo",
          "type": "address"
        }
      ],
      "name": "makePayment",
      "outputs": [],
      "payable": true,
      "stateMutability": "payable",
      "type": "function",
      "signature": "0x300be4fc"
    }
  ],
  "bytecode": "0x6080604052600060035534801561001557600080fd5b50612731806100256000396000f3fe6080604052600436106100d0576000357c0100000000000000000000000000000000000000000000000000000000900463ffffffff168063028e7768146100d5578063300be4fc1461029e5780633e5d9c95146102e25780635a18bf8b1461030d5780635e8375751461035e5780636f77926b146103d95780637a60dd351461061a57806380889348146108c7578063987593a714610918578063a93ab10114610984578063c3c5a54714610b2d578063c87cacbc14610b96578063d5251dad14610d8f578063feca3f5c14610f01575b600080fd5b3480156100e157600080fd5b50610124600480360360208110156100f857600080fd5b81019080803573ffffffffffffffffffffffffffffffffffffffff169060200190929190505050611101565b6040518080602001806020018781526020018060200186600281111561014657fe5b60ff1681526020018515151515815260200184810384528a818151815260200191508051906020019080838360005b83811015610190578082015181840152602081019050610175565b50505050905090810190601f1680156101bd5780820380516001836020036101000a031916815260200191505b50848103835289818151815260200191508051906020019080838360005b838110156101f65780820151818401526020810190506101db565b50505050905090810190601f1680156102235780820380516001836020036101000a031916815260200191505b50848103825287818151815260200191508051906020019080838360005b8381101561025c578082015181840152602081019050610241565b50505050905090810190601f1680156102895780820380516001836020036101000a031916815260200191505b50995050505050505050505060405180910390f35b6102e0600480360360208110156102b457600080fd5b81019080803573ffffffffffffffffffffffffffffffffffffffff16906020019092919050505061131f565b005b3480156102ee57600080fd5b506102f7611369565b6040518082815260200191505060405180910390f35b34801561031957600080fd5b5061035c6004803603602081101561033057600080fd5b81019080803573ffffffffffffffffffffffffffffffffffffffff16906020019092919050505061136f565b005b34801561036a57600080fd5b506103976004803603602081101561038157600080fd5b81019080803590602001909291905050506113d0565b604051808273ffffffffffffffffffffffffffffffffffffffff1673ffffffffffffffffffffffffffffffffffffffff16815260200191505060405180910390f35b3480156103e557600080fd5b50610428600480360360208110156103fc57600080fd5b81019080803573ffffffffffffffffffffffffffffffffffffffff16906020019092919050505061140e565b604051808673ffffffffffffffffffffffffffffffffffffffff1673ffffffffffffffffffffffffffffffffffffffff16815260200180602001806020018060200180602001858103855289818151815260200191508051906020019080838360005b838110156104a657808201518184015260208101905061048b565b50505050905090810190601f1680156104d35780820380516001836020036101000a031916815260200191505b50858103845288818151815260200191508051906020019080838360005b8381101561050c5780820151818401526020810190506104f1565b50505050905090810190601f1680156105395780820380516001836020036101000a031916815260200191505b50858103835287818151815260200191508051906020019080838360005b83811015610572578082015181840152602081019050610557565b50505050905090810190601f16801561059f5780820380516001836020036101000a031916815260200191505b50858103825286818151815260200191508051906020019080838360005b838110156105d85780820151818401526020810190506105bd565b50505050905090810190601f1680156106055780820380516001836020036101000a031916815260200191505b50995050505050505050505060405180910390f35b34801561062657600080fd5b506108c5600480360360a081101561063d57600080fd5b81019080803573ffffffffffffffffffffffffffffffffffffffff1690602001909291908035906020019064010000000081111561067a57600080fd5b82018360208201111561068c57600080fd5b803590602001918460018302840111640100000000831117156106ae57600080fd5b91908080601f016020809104026020016040519081016040528093929190818152602001838380828437600081840152601f19601f8201169050808301925050505050505091929192908035906020019064010000000081111561071157600080fd5b82018360208201111561072357600080fd5b8035906020019184600183028401116401000000008311171561074557600080fd5b91908080601f016020809104026020016040519081016040528093929190818152602001838380828437600081840152601f19601f820116905080830192505050505050509192919290803590602001906401000000008111156107a857600080fd5b8201836020820111156107ba57600080fd5b803590602001918460018302840111640100000000831117156107dc57600080fd5b91908080601f016020809104026020016040519081016040528093929190818152602001838380828437600081840152601f19601f8201169050808301925050505050505091929192908035906020019064010000000081111561083f57600080fd5b82018360208201111561085157600080fd5b8035906020019184600183028401116401000000008311171561087357600080fd5b91908080601f016020809104026020016040519081016040528093929190818152602001838380828437600081840152601f19601f8201169050808301925050505050505091929192905050506117a2565b005b3480156108d357600080fd5b50610916600480360360208110156108ea57600080fd5b81019080803573ffffffffffffffffffffffffffffffffffffffff169060200190929190505050611881565b005b34801561092457600080fd5b5061092d6118e2565b6040518080602001828103825283818151815260200191508051906020019060200280838360005b83811015610970578082015181840152602081019050610955565b505050509050019250505060405180910390f35b34801561099057600080fd5b506109d3600480360360208110156109a757600080fd5b81019080803573ffffffffffffffffffffffffffffffffffffffff169060200190929190505050611970565b60405180806020018060200185815260200180602001848103845288818151815260200191508051906020019080838360005b83811015610a21578082015181840152602081019050610a06565b50505050905090810190601f168015610a4e5780820380516001836020036101000a031916815260200191505b50848103835287818151815260200191508051906020019080838360005b83811015610a87578082015181840152602081019050610a6c565b50505050905090810190601f168015610ab45780820380516001836020036101000a031916815260200191505b50848103825285818151815260200191508051906020019080838360005b83811015610aed578082015181840152602081019050610ad2565b50505050905090810190601f168015610b1a5780820380516001836020036101000a031916815260200191505b5097505050505050505060405180910390f35b348015610b3957600080fd5b50610b7c60048036036020811015610b5057600080fd5b81019080803573ffffffffffffffffffffffffffffffffffffffff169060200190929190505050611c63565b604051808215151515815260200191505060405180910390f35b348015610ba257600080fd5b50610bcf60048036036020811015610bb957600080fd5b8101908080359060200190929190505050611cbc565b604051808773ffffffffffffffffffffffffffffffffffffffff1673ffffffffffffffffffffffffffffffffffffffff1681526020018673ffffffffffffffffffffffffffffffffffffffff1673ffffffffffffffffffffffffffffffffffffffff168152602001806020018060200180602001858152602001848103845288818151815260200191508051906020019080838360005b83811015610c81578082015181840152602081019050610c66565b50505050905090810190601f168015610cae5780820380516001836020036101000a031916815260200191505b50848103835287818151815260200191508051906020019080838360005b83811015610ce7578082015181840152602081019050610ccc565b50505050905090810190601f168015610d145780820380516001836020036101000a031916815260200191505b50848103825286818151815260200191508051906020019080838360005b83811015610d4d578082015181840152602081019050610d32565b50505050905090810190601f168015610d7a5780820380516001836020036101000a031916815260200191505b50995050505050505050505060405180910390f35b610eff60048036036060811015610da557600080fd5b81019080803573ffffffffffffffffffffffffffffffffffffffff16906020019092919080359060200190640100000000811115610de257600080fd5b820183602082011115610df457600080fd5b80359060200191846001830284011164010000000083111715610e1657600080fd5b91908080601f016020809104026020016040519081016040528093929190818152602001838380828437600081840152601f19601f82011690508083019250505050505050919291929080359060200190640100000000811115610e7957600080fd5b820183602082011115610e8b57600080fd5b80359060200191846001830284011164010000000083111715610ead57600080fd5b91908080601f016020809104026020016040519081016040528093929190818152602001838380828437600081840152601f19601f820116905080830192505050505050509192919290505050611f70565b005b348015610f0d57600080fd5b506110ff60048036036080811015610f2457600080fd5b8101908080359060200190640100000000811115610f4157600080fd5b820183602082011115610f5357600080fd5b80359060200191846001830284011164010000000083111715610f7557600080fd5b91908080601f016020809104026020016040519081016040528093929190818152602001838380828437600081840152601f19601f82011690508083019250505050505050919291929080359060200190640100000000811115610fd857600080fd5b820183602082011115610fea57600080fd5b8035906020019184600183028401116401000000008311171561100c57600080fd5b91908080601f016020809104026020016040519081016040528093929190818152602001838380828437600081840152601f19601f820116905080830192505050505050509192919290803590602001909291908035906020019064010000000081111561107957600080fd5b82018360208201111561108b57600080fd5b803590602001918460018302840111640100000000831117156110ad57600080fd5b91908080601f016020809104026020016040519081016040528093929190818152602001838380828437600081840152601f19601f820116905080830192505050505050509192919290505050612318565b005b6001602052806000526040600020600091509050806000018054600181600116156101000203166002900480601f0160208091040260200160405190810160405280929190818152602001828054600181600116156101000203166002900480156111ad5780601f10611182576101008083540402835291602001916111ad565b820191906000526020600020905b81548152906001019060200180831161119057829003601f168201915b505050505090806001018054600181600116156101000203166002900480601f01602080910402602001604051908101604052809291908181526020018280546001816001161561010002031660029004801561124b5780601f106112205761010080835404028352916020019161124b565b820191906000526020600020905b81548152906001019060200180831161122e57829003601f168201915b505050505090806002015490806003018054600181600116156101000203166002900480601f0160208091040260200160405190810160405280929190818152602001828054600181600116156101000203166002900480156112ef5780601f106112c4576101008083540402835291602001916112ef565b820191906000526020600020905b8154815290600101906020018083116112d257829003601f168201915b5050505050908060040160009054906101000a900460ff16908060040160019054906101000a900460ff16905086565b8073ffffffffffffffffffffffffffffffffffffffff166108fc349081150290604051600060405180830381858888f19350505050158015611365573d6000803e3d6000fd5b5050565b60035481565b8073ffffffffffffffffffffffffffffffffffffffff166108fc3073ffffffffffffffffffffffffffffffffffffffff16319081150290604051600060405180830381858888f193505050501580156113cc573d6000803e3d6000fd5b5050565b6005818154811015156113df57fe5b906000526020600020016000915054906101000a900473ffffffffffffffffffffffffffffffffffffffff1681565b600060608060608085600260008873ffffffffffffffffffffffffffffffffffffffff1673ffffffffffffffffffffffffffffffffffffffff168152602001908152602001600020600001600260008973ffffffffffffffffffffffffffffffffffffffff1673ffffffffffffffffffffffffffffffffffffffff168152602001908152602001600020600101600260008a73ffffffffffffffffffffffffffffffffffffffff1673ffffffffffffffffffffffffffffffffffffffff168152602001908152602001600020600201600260008b73ffffffffffffffffffffffffffffffffffffffff1673ffffffffffffffffffffffffffffffffffffffff168152602001908152602001600020600301838054600181600116156101000203166002900480601f0160208091040260200160405190810160405280929190818152602001828054600181600116156101000203166002900480156115b45780601f10611589576101008083540402835291602001916115b4565b820191906000526020600020905b81548152906001019060200180831161159757829003601f168201915b50505050509350828054600181600116156101000203166002900480601f0160208091040260200160405190810160405280929190818152602001828054600181600116156101000203166002900480156116505780601f1061162557610100808354040283529160200191611650565b820191906000526020600020905b81548152906001019060200180831161163357829003601f168201915b50505050509250818054600181600116156101000203166002900480601f0160208091040260200160405190810160405280929190818152602001828054600181600116156101000203166002900480156116ec5780601f106116c1576101008083540402835291602001916116ec565b820191906000526020600020905b8154815290600101906020018083116116cf57829003601f168201915b50505050509150808054600181600116156101000203166002900480601f0160208091040260200160405190810160405280929190818152602001828054600181600116156101000203166002900480156117885780601f1061175d57610100808354040283529160200191611788565b820191906000526020600020905b81548152906001019060200180831161176b57829003601f168201915b505050505090509450945094509450945091939590929450565b60806040519081016040528085815260200184815260200183815260200182815250600260008773ffffffffffffffffffffffffffffffffffffffff1673ffffffffffffffffffffffffffffffffffffffff168152602001908152602001600020600082015181600001908051906020019061181f9291906125e0565b50602082015181600101908051906020019061183c9291906125e0565b5060408201518160020190805190602001906118599291906125e0565b5060608201518160030190805190602001906118769291906125e0565b509050505050505050565b8073ffffffffffffffffffffffffffffffffffffffff166108fc3073ffffffffffffffffffffffffffffffffffffffff16319081150290604051600060405180830381858888f193505050501580156118de573d6000803e3d6000fd5b5050565b6060600580548060200260200160405190810160405280929190818152602001828054801561196657602002820191906000526020600020905b8160009054906101000a900473ffffffffffffffffffffffffffffffffffffffff1673ffffffffffffffffffffffffffffffffffffffff168152602001906001019080831161191c575b5050505050905090565b60608060006060600160008673ffffffffffffffffffffffffffffffffffffffff1673ffffffffffffffffffffffffffffffffffffffff168152602001908152602001600020600001600160008773ffffffffffffffffffffffffffffffffffffffff1673ffffffffffffffffffffffffffffffffffffffff168152602001908152602001600020600101600160008873ffffffffffffffffffffffffffffffffffffffff1673ffffffffffffffffffffffffffffffffffffffff16815260200190815260200160002060020154600160008973ffffffffffffffffffffffffffffffffffffffff1673ffffffffffffffffffffffffffffffffffffffff168152602001908152602001600020600301838054600181600116156101000203166002900480601f016020809104026020016040519081016040528092919081815260200182805460018160011615610100020316600290048015611b155780601f10611aea57610100808354040283529160200191611b15565b820191906000526020600020905b815481529060010190602001808311611af857829003601f168201915b50505050509350828054600181600116156101000203166002900480601f016020809104026020016040519081016040528092919081815260200182805460018160011615610100020316600290048015611bb15780601f10611b8657610100808354040283529160200191611bb1565b820191906000526020600020905b815481529060010190602001808311611b9457829003601f168201915b50505050509250808054600181600116156101000203166002900480601f016020809104026020016040519081016040528092919081815260200182805460018160011615610100020316600290048015611c4d5780601f10611c2257610100808354040283529160200191611c4d565b820191906000526020600020905b815481529060010190602001808311611c3057829003601f168201915b5050505050905093509350935093509193509193565b6000600160008373ffffffffffffffffffffffffffffffffffffffff1673ffffffffffffffffffffffffffffffffffffffff16815260200190815260200160002060040160019054906101000a900460ff169050919050565b6000806060806060600080600088815260200190815260200160002060000160009054906101000a900473ffffffffffffffffffffffffffffffffffffffff1660008089815260200190815260200160002060010160009054906101000a900473ffffffffffffffffffffffffffffffffffffffff166000808a81526020019081526020016000206002016000808b81526020019081526020016000206003016000808c81526020019081526020016000206004016000808d815260200190815260200160002060050154838054600181600116156101000203166002900480601f016020809104026020016040519081016040528092919081815260200182805460018160011615610100020316600290048015611e1c5780601f10611df157610100808354040283529160200191611e1c565b820191906000526020600020905b815481529060010190602001808311611dff57829003601f168201915b50505050509350828054600181600116156101000203166002900480601f016020809104026020016040519081016040528092919081815260200182805460018160011615610100020316600290048015611eb85780601f10611e8d57610100808354040283529160200191611eb8565b820191906000526020600020905b815481529060010190602001808311611e9b57829003601f168201915b50505050509250818054600181600116156101000203166002900480601f016020809104026020016040519081016040528092919081815260200182805460018160011615610100020316600290048015611f545780601f10611f2957610100808354040283529160200191611f54565b820191906000526020600020905b815481529060010190602001808311611f3757829003601f168201915b5050505050915095509550955095509550955091939550919395565b60046000815480929190600101919050555060c0604051908101604052803373ffffffffffffffffffffffffffffffffffffffff1681526020018473ffffffffffffffffffffffffffffffffffffffff168152602001838152602001828152602001600160008673ffffffffffffffffffffffffffffffffffffffff1673ffffffffffffffffffffffffffffffffffffffff1681526020019081526020016000206003018054600181600116156101000203166002900480601f0160208091040260200160405190810160405280929190818152602001828054600181600116156101000203166002900480156120a85780601f1061207d576101008083540402835291602001916120a8565b820191906000526020600020905b81548152906001019060200180831161208b57829003601f168201915b5050505050815260200134815250600080600454815260200190815260200160002060008201518160000160006101000a81548173ffffffffffffffffffffffffffffffffffffffff021916908373ffffffffffffffffffffffffffffffffffffffff16021790555060208201518160010160006101000a81548173ffffffffffffffffffffffffffffffffffffffff021916908373ffffffffffffffffffffffffffffffffffffffff16021790555060408201518160020190805190602001906121749291906125e0565b5060608201518160030190805190602001906121919291906125e0565b5060808201518160040190805190602001906121ae9291906125e0565b5060a082015181600501559050503373ffffffffffffffffffffffffffffffffffffffff166004547f28f4c38a62473bb163a3065a527f8880bd537ee18e76c8fa6ecaddaec021f559858585604051808473ffffffffffffffffffffffffffffffffffffffff1673ffffffffffffffffffffffffffffffffffffffff1681526020018060200180602001838103835285818151815260200191508051906020019080838360005b83811015612270578082015181840152602081019050612255565b50505050905090810190601f16801561229d5780820380516001836020036101000a031916815260200191505b50838103825284818151815260200191508051906020019080838360005b838110156122d65780820151818401526020810190506122bb565b50505050905090810190601f1680156123035780820380516001836020036101000a031916815260200191505b509550505050505060405180910390a3505050565b6003600081548092919060010191905055506000600160003373ffffffffffffffffffffffffffffffffffffffff1673ffffffffffffffffffffffffffffffffffffffff168152602001908152602001600020905084816000019080519060200190612385929190612660565b508381600101908051906020019061239e929190612660565b50828160020181905550818160030190805190602001906123c0929190612660565b5060018160040160016101000a81548160ff0219169083151502179055503373ffffffffffffffffffffffffffffffffffffffff167f8b0f3bd08090bd8a9efca178b6f124e5e3e05d1b38f6cdf99c27c29dec9a2a8c8686868660405180806020018060200185815260200180602001848103845288818151815260200191508051906020019080838360005b8381101561246857808201518184015260208101905061244d565b50505050905090810190601f1680156124955780820380516001836020036101000a031916815260200191505b50848103835287818151815260200191508051906020019080838360005b838110156124ce5780820151818401526020810190506124b3565b50505050905090810190601f1680156124fb5780820380516001836020036101000a031916815260200191505b50848103825285818151815260200191508051906020019080838360005b83811015612534578082015181840152602081019050612519565b50505050905090810190601f1680156125615780820380516001836020036101000a031916815260200191505b5097505050505050505060405180910390a260053390806001815401808255809150509060018203906000526020600020016000909192909190916101000a81548173ffffffffffffffffffffffffffffffffffffffff021916908373ffffffffffffffffffffffffffffffffffffffff160217905550505050505050565b828054600181600116156101000203166002900490600052602060002090601f016020900481019282601f1061262157805160ff191683800117855561264f565b8280016001018555821561264f579182015b8281111561264e578251825591602001919060010190612633565b5b50905061265c91906126e0565b5090565b828054600181600116156101000203166002900490600052602060002090601f016020900481019282601f106126a157805160ff19168380011785556126cf565b828001600101855582156126cf579182015b828111156126ce5782518255916020019190600101906126b3565b5b5090506126dc91906126e0565b5090565b61270291905b808211156126fe5760008160009055506001016126e6565b5090565b9056fea165627a7a72305820055e204dc7333a03bb54a6b0f9a703b8e85a22d2a478b0d4bee92157b8c77e710029",
  "source": "pragma solidity ^0.5.0;\r\n\r\ncontract Vehicleshare {\r\n\r\n    struct Vehicle {\r\n        string make;\r\n        string model;\r\n        uint price;\r\n        string location; // locating is converted from string to address using parseAddress string\r\n        VehicleState state; // status of the vehicle. Has to be idle to hire vehicle\r\n        bool registered;\r\n    }\r\n    \r\n    struct User {\r\n        string fName;\r\n        string lName;\r\n        string licenceNo;\r\n        string dob;\r\n    }\r\n    \r\n    struct Rental {\r\n        address driver;\r\n        address vehicle;\r\n        string start_date_time;\r\n        string end_date_time;\r\n        string location;\r\n        uint cost;\r\n    }\r\n\r\n    event getVeh (\r\n        address indexed _id,\r\n        string _make,\r\n        string _model,\r\n        uint _price,\r\n        string _location\r\n    );\r\n    \r\n    event notifyOwner (\r\n        uint indexed rentalId,\r\n        address indexed driver,\r\n        address owner,\r\n        string start_date_time,\r\n        string end_date_time\r\n    );\r\n    \r\n    event notifyDriver (\r\n        uint indexed rentalId\r\n    );\r\n    \r\n    // Status of the vehicle \r\n    enum VehicleState { active, inactive, idle }\r\n\r\n    // mapping to store the rentals\r\n    mapping (uint => Rental) rentals;\r\n\r\n    // mapping to store the vehicles\r\n    mapping (address => Vehicle) public vehicles;\r\n    \r\n    // mapping to store the users\r\n    mapping (address => User) users;\r\n    \r\n    // number of vehicles\r\n    uint public numVehicles = 0;\r\n    \r\n    // sequence number of rentals\r\n    uint rentalseq;\r\n    \r\n    // number of owners with listing of vehicles\r\n    address[] public vehicleAccts;\r\n    \r\n    // Register the user\r\n    function setUser(\r\n        address addr, \r\n        string memory fName, \r\n        string memory lName, \r\n        string memory licenceNo, \r\n        string memory dob\r\n    ) public {\r\n        users[addr] = User(fName, lName, licenceNo, dob);\r\n    }\r\n    \r\n    function getUser (address addr) public view returns (address, string memory, string memory, string memory, string memory) {\r\n        return (addr, users[addr].fName, users[addr].lName, users[addr].licenceNo, users[addr].dob);\r\n    }\r\n\r\n    // hire a vehicle\r\n    function setHire(\r\n        address owner,   // vehicle is the same as owner's key\r\n        string memory start_date_time, \r\n        string memory end_date_time \r\n        // uint cost\r\n    ) public payable  {\r\n        rentalseq++;\r\n        \r\n        // address driver = msg.sender; \r\n        rentals[rentalseq] = Rental(msg.sender, owner, start_date_time, end_date_time, vehicles[owner].location, msg.value);\r\n        emit notifyOwner(rentalseq, msg.sender, owner, start_date_time, end_date_time);\r\n    }\r\n    \r\n    function getHire(uint rentalNo) public view returns (address, address, string memory, string memory, string memory, uint) {\r\n        \r\n        // address vehicle = rentals[rentalNo].vehicle;\r\n        // Vehicle memory vehicleInfo = vehicles[vehicle]; // will this be needed?\r\n        \r\n        return (\r\n            rentals[rentalNo].driver,\r\n            rentals[rentalNo].vehicle, \r\n            rentals[rentalNo].start_date_time, \r\n            rentals[rentalNo].end_date_time,\r\n            rentals[rentalNo].location,\r\n            rentals[rentalNo].cost\r\n            // vehicleInfo.price\r\n        );\r\n    }\r\n\r\n    // register the vehicle onto the blockhain    \r\n    function setVehicle(string memory make, string memory model, uint price, string memory location) public {\r\n        numVehicles++; // Is this used?\r\n\r\n        Vehicle storage vehicle = vehicles[msg.sender];\r\n        \r\n        vehicle.make = make;\r\n        vehicle.model = model;\r\n        vehicle.price = price;\r\n        vehicle.location = location;\r\n        vehicle.registered = true;\r\n\r\n        emit getVeh(msg.sender, make, model, price, location);\r\n\r\n        vehicleAccts.push(msg.sender);        \r\n    }\r\n    \r\n    function getVehicle(address owner) public view returns (string memory, string memory, uint, string memory) {\r\n        return (vehicles[owner].make, vehicles[owner].model, vehicles[owner].price, vehicles[owner].location);\r\n    }\r\n\r\n    function isRegistered(address owner) public view returns (bool) {\r\n        return vehicles[owner].registered;\r\n    }\r\n\r\n    function vehicleList() public view returns(address[] memory) {\r\n        return vehicleAccts;\r\n    }\r\n    \r\n    function acceptDriver(address payable driver) public {\r\n        // emit notifyDriver(rentalId);\r\n        driver.transfer(address(this).balance);\r\n    }\r\n    \r\n    function confirmReceived(address payable owner) public {\r\n        // rentals[rentalId].vehicle\r\n        owner.transfer(address(this).balance);\r\n    }\r\n\r\n    function makePayment(address payable sendTo) public payable {\r\n        sendTo.transfer(msg.value);\r\n    }\r\n\r\n    // function getBalance(address _user) public view returns (uint){\r\n    //     return _user.balance;\r\n    // }\r\n    \r\n    // function balanceOf() public view returns(uint) {\r\n    //     return address(this).balance;\r\n    // }\r\n\r\n}",
  "sourcePath": "C:/Users/jayal/Projects/EtherRide/contracts/Vehicleshare.sol",
  "compiler": {
    "name": "solc",
    "version": "0.5.0+commit.1d4f565a.Emscripten.clang"
  },
  "schemaVersion": "3.0.0",
  "updatedAt": "2019-02-21T21:49:59.498Z",
  "devdoc": {
    "methods": {}
  },
  "userdoc": {
    "methods": {}
  }
}