{
  "contractName": "Rideshare",
  "abi": [
    {
      "constant": true,
      "inputs": [],
      "name": "numVehicles",
      "outputs": [
        {
          "name": "",
          "type": "uint256"
        }
      ],
      "payable": false,
      "stateMutability": "view",
      "type": "function",
      "signature": "0x3e5d9c95"
    },
    {
      "constant": true,
      "inputs": [
        {
          "name": "",
          "type": "uint256"
        }
      ],
      "name": "vehicleAccts",
      "outputs": [
        {
          "name": "",
          "type": "address"
        }
      ],
      "payable": false,
      "stateMutability": "view",
      "type": "function",
      "signature": "0x5e837575"
    },
    {
      "constant": false,
      "inputs": [
        {
          "name": "addr",
          "type": "address"
        },
        {
          "name": "fName",
          "type": "string"
        },
        {
          "name": "lName",
          "type": "string"
        },
        {
          "name": "licenceNo",
          "type": "string"
        },
        {
          "name": "dob",
          "type": "string"
        }
      ],
      "name": "setUser",
      "outputs": [],
      "payable": false,
      "stateMutability": "nonpayable",
      "type": "function",
      "signature": "0x7a60dd35"
    },
    {
      "constant": true,
      "inputs": [
        {
          "name": "addr",
          "type": "address"
        }
      ],
      "name": "getUser",
      "outputs": [
        {
          "name": "",
          "type": "address"
        },
        {
          "name": "",
          "type": "string"
        },
        {
          "name": "",
          "type": "string"
        },
        {
          "name": "",
          "type": "string"
        },
        {
          "name": "",
          "type": "string"
        }
      ],
      "payable": false,
      "stateMutability": "view",
      "type": "function",
      "signature": "0x6f77926b"
    },
    {
      "constant": false,
      "inputs": [
        {
          "name": "driver",
          "type": "address"
        },
        {
          "name": "vehicle",
          "type": "address"
        },
        {
          "name": "start_date_time",
          "type": "string"
        },
        {
          "name": "end_date_time",
          "type": "string"
        },
        {
          "name": "location",
          "type": "string"
        }
      ],
      "name": "setHire",
      "outputs": [],
      "payable": true,
      "stateMutability": "payable",
      "type": "function",
      "signature": "0x555c5d30"
    },
    {
      "constant": true,
      "inputs": [
        {
          "name": "rentalNo",
          "type": "uint256"
        }
      ],
      "name": "getHire",
      "outputs": [
        {
          "name": "",
          "type": "address"
        },
        {
          "name": "",
          "type": "address"
        },
        {
          "name": "",
          "type": "string"
        },
        {
          "name": "",
          "type": "string"
        },
        {
          "name": "",
          "type": "uint256"
        },
        {
          "name": "",
          "type": "string"
        }
      ],
      "payable": false,
      "stateMutability": "view",
      "type": "function",
      "signature": "0xc87cacbc"
    },
    {
      "constant": false,
      "inputs": [
        {
          "name": "owner",
          "type": "address"
        },
        {
          "name": "make",
          "type": "string"
        },
        {
          "name": "model",
          "type": "string"
        },
        {
          "name": "price",
          "type": "uint256"
        },
        {
          "name": "location",
          "type": "string"
        }
      ],
      "name": "setVehicle",
      "outputs": [],
      "payable": false,
      "stateMutability": "nonpayable",
      "type": "function",
      "signature": "0xbf49194b"
    },
    {
      "constant": true,
      "inputs": [
        {
          "name": "owner",
          "type": "address"
        }
      ],
      "name": "getVehicle",
      "outputs": [
        {
          "name": "",
          "type": "string"
        },
        {
          "name": "",
          "type": "string"
        },
        {
          "name": "",
          "type": "uint256"
        },
        {
          "name": "",
          "type": "string"
        }
      ],
      "payable": false,
      "stateMutability": "view",
      "type": "function",
      "signature": "0xa93ab101"
    },
    {
      "constant": true,
      "inputs": [],
      "name": "getVehicleList",
      "outputs": [
        {
          "name": "vehicles",
          "type": "address[]"
        }
      ],
      "payable": false,
      "stateMutability": "view",
      "type": "function",
      "signature": "0x2a3fa9c1"
    },
    {
      "constant": true,
      "inputs": [],
      "name": "getVehiclesCount",
      "outputs": [
        {
          "name": "",
          "type": "uint256"
        }
      ],
      "payable": false,
      "stateMutability": "view",
      "type": "function",
      "signature": "0x1f8787dc"
    }
  ],
  "bytecode": "0x608060405234801561001057600080fd5b50611fb8806100206000396000f3fe6080604052600436106100a4576000357c0100000000000000000000000000000000000000000000000000000000900463ffffffff1680631f8787dc146100a95780632a3fa9c1146100d45780633e5d9c9514610140578063555c5d301461016b5780635e837575146103945780636f77926b1461040f5780637a60dd3514610650578063a93ab101146108fd578063bf49194b14610aa6578063c87cacbc14610cc6575b600080fd5b3480156100b557600080fd5b506100be610ebf565b6040518082815260200191505060405180910390f35b3480156100e057600080fd5b506100e9610ec9565b6040518080602001828103825283818151815260200191508051906020019060200280838360005b8381101561012c578082015181840152602081019050610111565b505050509050019250505060405180910390f35b34801561014c57600080fd5b50610155610f57565b6040518082815260200191505060405180910390f35b610392600480360360a081101561018157600080fd5b81019080803573ffffffffffffffffffffffffffffffffffffffff169060200190929190803573ffffffffffffffffffffffffffffffffffffffff169060200190929190803590602001906401000000008111156101de57600080fd5b8201836020820111156101f057600080fd5b8035906020019184600183028401116401000000008311171561021257600080fd5b91908080601f016020809104026020016040519081016040528093929190818152602001838380828437600081840152601f19601f8201169050808301925050505050505091929192908035906020019064010000000081111561027557600080fd5b82018360208201111561028757600080fd5b803590602001918460018302840111640100000000831117156102a957600080fd5b91908080601f016020809104026020016040519081016040528093929190818152602001838380828437600081840152601f19601f8201169050808301925050505050505091929192908035906020019064010000000081111561030c57600080fd5b82018360208201111561031e57600080fd5b8035906020019184600183028401116401000000008311171561034057600080fd5b91908080601f016020809104026020016040519081016040528093929190818152602001838380828437600081840152601f19601f820116905080830192505050505050509192919290505050610f5d565b005b3480156103a057600080fd5b506103cd600480360360208110156103b757600080fd5b81019080803590602001909291905050506110c6565b604051808273ffffffffffffffffffffffffffffffffffffffff1673ffffffffffffffffffffffffffffffffffffffff16815260200191505060405180910390f35b34801561041b57600080fd5b5061045e6004803603602081101561043257600080fd5b81019080803573ffffffffffffffffffffffffffffffffffffffff169060200190929190505050611104565b604051808673ffffffffffffffffffffffffffffffffffffffff1673ffffffffffffffffffffffffffffffffffffffff16815260200180602001806020018060200180602001858103855289818151815260200191508051906020019080838360005b838110156104dc5780820151818401526020810190506104c1565b50505050905090810190601f1680156105095780820380516001836020036101000a031916815260200191505b50858103845288818151815260200191508051906020019080838360005b83811015610542578082015181840152602081019050610527565b50505050905090810190601f16801561056f5780820380516001836020036101000a031916815260200191505b50858103835287818151815260200191508051906020019080838360005b838110156105a857808201518184015260208101905061058d565b50505050905090810190601f1680156105d55780820380516001836020036101000a031916815260200191505b50858103825286818151815260200191508051906020019080838360005b8381101561060e5780820151818401526020810190506105f3565b50505050905090810190601f16801561063b5780820380516001836020036101000a031916815260200191505b50995050505050505050505060405180910390f35b34801561065c57600080fd5b506108fb600480360360a081101561067357600080fd5b81019080803573ffffffffffffffffffffffffffffffffffffffff169060200190929190803590602001906401000000008111156106b057600080fd5b8201836020820111156106c257600080fd5b803590602001918460018302840111640100000000831117156106e457600080fd5b91908080601f016020809104026020016040519081016040528093929190818152602001838380828437600081840152601f19601f8201169050808301925050505050505091929192908035906020019064010000000081111561074757600080fd5b82018360208201111561075957600080fd5b8035906020019184600183028401116401000000008311171561077b57600080fd5b91908080601f016020809104026020016040519081016040528093929190818152602001838380828437600081840152601f19601f820116905080830192505050505050509192919290803590602001906401000000008111156107de57600080fd5b8201836020820111156107f057600080fd5b8035906020019184600183028401116401000000008311171561081257600080fd5b91908080601f016020809104026020016040519081016040528093929190818152602001838380828437600081840152601f19601f8201169050808301925050505050505091929192908035906020019064010000000081111561087557600080fd5b82018360208201111561088757600080fd5b803590602001918460018302840111640100000000831117156108a957600080fd5b91908080601f016020809104026020016040519081016040528093929190818152602001838380828437600081840152601f19601f820116905080830192505050505050509192919290505050611498565b005b34801561090957600080fd5b5061094c6004803603602081101561092057600080fd5b81019080803573ffffffffffffffffffffffffffffffffffffffff169060200190929190505050611577565b60405180806020018060200185815260200180602001848103845288818151815260200191508051906020019080838360005b8381101561099a57808201518184015260208101905061097f565b50505050905090810190601f1680156109c75780820380516001836020036101000a031916815260200191505b50848103835287818151815260200191508051906020019080838360005b83811015610a005780820151818401526020810190506109e5565b50505050905090810190601f168015610a2d5780820380516001836020036101000a031916815260200191505b50848103825285818151815260200191508051906020019080838360005b83811015610a66578082015181840152602081019050610a4b565b50505050905090810190601f168015610a935780820380516001836020036101000a031916815260200191505b5097505050505050505060405180910390f35b348015610ab257600080fd5b50610cc4600480360360a0811015610ac957600080fd5b81019080803573ffffffffffffffffffffffffffffffffffffffff16906020019092919080359060200190640100000000811115610b0657600080fd5b820183602082011115610b1857600080fd5b80359060200191846001830284011164010000000083111715610b3a57600080fd5b91908080601f016020809104026020016040519081016040528093929190818152602001838380828437600081840152601f19601f82011690508083019250505050505050919291929080359060200190640100000000811115610b9d57600080fd5b820183602082011115610baf57600080fd5b80359060200191846001830284011164010000000083111715610bd157600080fd5b91908080601f016020809104026020016040519081016040528093929190818152602001838380828437600081840152601f19601f8201169050808301925050505050505091929192908035906020019092919080359060200190640100000000811115610c3e57600080fd5b820183602082011115610c5057600080fd5b80359060200191846001830284011164010000000083111715610c7257600080fd5b91908080601f016020809104026020016040519081016040528093929190818152602001838380828437600081840152601f19601f82011690508083019250505050505050919291929050505061186a565b005b348015610cd257600080fd5b50610cff60048036036020811015610ce957600080fd5b8101908080359060200190929190505050611984565b604051808773ffffffffffffffffffffffffffffffffffffffff1673ffffffffffffffffffffffffffffffffffffffff1681526020018673ffffffffffffffffffffffffffffffffffffffff1673ffffffffffffffffffffffffffffffffffffffff168152602001806020018060200185815260200180602001848103845288818151815260200191508051906020019080838360005b83811015610db1578082015181840152602081019050610d96565b50505050905090810190601f168015610dde5780820380516001836020036101000a031916815260200191505b50848103835287818151815260200191508051906020019080838360005b83811015610e17578082015181840152602081019050610dfc565b50505050905090810190601f168015610e445780820380516001836020036101000a031916815260200191505b50848103825285818151815260200191508051906020019080838360005b83811015610e7d578082015181840152602081019050610e62565b50505050905090810190601f168015610eaa5780820380516001836020036101000a031916815260200191505b50995050505050505050505060405180910390f35b6000600354905090565b60606005805480602002602001604051908101604052809291908181526020018280548015610f4d57602002820191906000526020600020905b8160009054906101000a900473ffffffffffffffffffffffffffffffffffffffff1673ffffffffffffffffffffffffffffffffffffffff1681526020019060010190808311610f03575b5050505050905090565b60035481565b60046000815480929190600101919050555060a0604051908101604052808673ffffffffffffffffffffffffffffffffffffffff1681526020018573ffffffffffffffffffffffffffffffffffffffff16815260200184815260200183815260200182815250600080600454815260200190815260200160002060008201518160000160006101000a81548173ffffffffffffffffffffffffffffffffffffffff021916908373ffffffffffffffffffffffffffffffffffffffff16021790555060208201518160010160006101000a81548173ffffffffffffffffffffffffffffffffffffffff021916908373ffffffffffffffffffffffffffffffffffffffff1602179055506040820151816002019080519060200190611081929190611e2c565b50606082015181600301908051906020019061109e929190611e2c565b5060808201518160040190805190602001906110bb929190611e2c565b509050505050505050565b6005818154811015156110d557fe5b906000526020600020016000915054906101000a900473ffffffffffffffffffffffffffffffffffffffff1681565b600060608060608085600260008873ffffffffffffffffffffffffffffffffffffffff1673ffffffffffffffffffffffffffffffffffffffff168152602001908152602001600020600001600260008973ffffffffffffffffffffffffffffffffffffffff1673ffffffffffffffffffffffffffffffffffffffff168152602001908152602001600020600101600260008a73ffffffffffffffffffffffffffffffffffffffff1673ffffffffffffffffffffffffffffffffffffffff168152602001908152602001600020600201600260008b73ffffffffffffffffffffffffffffffffffffffff1673ffffffffffffffffffffffffffffffffffffffff168152602001908152602001600020600301838054600181600116156101000203166002900480601f0160208091040260200160405190810160405280929190818152602001828054600181600116156101000203166002900480156112aa5780601f1061127f576101008083540402835291602001916112aa565b820191906000526020600020905b81548152906001019060200180831161128d57829003601f168201915b50505050509350828054600181600116156101000203166002900480601f0160208091040260200160405190810160405280929190818152602001828054600181600116156101000203166002900480156113465780601f1061131b57610100808354040283529160200191611346565b820191906000526020600020905b81548152906001019060200180831161132957829003601f168201915b50505050509250818054600181600116156101000203166002900480601f0160208091040260200160405190810160405280929190818152602001828054600181600116156101000203166002900480156113e25780601f106113b7576101008083540402835291602001916113e2565b820191906000526020600020905b8154815290600101906020018083116113c557829003601f168201915b50505050509150808054600181600116156101000203166002900480601f01602080910402602001604051908101604052809291908181526020018280546001816001161561010002031660029004801561147e5780601f106114535761010080835404028352916020019161147e565b820191906000526020600020905b81548152906001019060200180831161146157829003601f168201915b505050505090509450945094509450945091939590929450565b60806040519081016040528085815260200184815260200183815260200182815250600260008773ffffffffffffffffffffffffffffffffffffffff1673ffffffffffffffffffffffffffffffffffffffff1681526020019081526020016000206000820151816000019080519060200190611515929190611e2c565b506020820151816001019080519060200190611532929190611e2c565b50604082015181600201908051906020019061154f929190611e2c565b50606082015181600301908051906020019061156c929190611e2c565b509050505050505050565b60608060006060600160008673ffffffffffffffffffffffffffffffffffffffff1673ffffffffffffffffffffffffffffffffffffffff168152602001908152602001600020600001600160008773ffffffffffffffffffffffffffffffffffffffff1673ffffffffffffffffffffffffffffffffffffffff168152602001908152602001600020600101600160008873ffffffffffffffffffffffffffffffffffffffff1673ffffffffffffffffffffffffffffffffffffffff16815260200190815260200160002060020154600160008973ffffffffffffffffffffffffffffffffffffffff1673ffffffffffffffffffffffffffffffffffffffff168152602001908152602001600020600301838054600181600116156101000203166002900480601f01602080910402602001604051908101604052809291908181526020018280546001816001161561010002031660029004801561171c5780601f106116f15761010080835404028352916020019161171c565b820191906000526020600020905b8154815290600101906020018083116116ff57829003601f168201915b50505050509350828054600181600116156101000203166002900480601f0160208091040260200160405190810160405280929190818152602001828054600181600116156101000203166002900480156117b85780601f1061178d576101008083540402835291602001916117b8565b820191906000526020600020905b81548152906001019060200180831161179b57829003601f168201915b50505050509250808054600181600116156101000203166002900480601f0160208091040260200160405190810160405280929190818152602001828054600181600116156101000203166002900480156118545780601f1061182957610100808354040283529160200191611854565b820191906000526020600020905b81548152906001019060200180831161183757829003601f168201915b5050505050905093509350935093509193509193565b6003600081548092919060010191905055506000600160008773ffffffffffffffffffffffffffffffffffffffff1673ffffffffffffffffffffffffffffffffffffffff1681526020019081526020016000209050848160000190805190602001906118d7929190611eac565b50838160010190805190602001906118f0929190611eac565b5082816002018190555081816003019080519060200190611912929190611eac565b50600160058790806001815401808255809150509060018203906000526020600020016000909192909190916101000a81548173ffffffffffffffffffffffffffffffffffffffff021916908373ffffffffffffffffffffffffffffffffffffffff1602179055505050505050505050565b60008060608060006060600080600089815260200190815260200160002060010160009054906101000a900473ffffffffffffffffffffffffffffffffffffffff1690506119d0611f2c565b600160008373ffffffffffffffffffffffffffffffffffffffff1673ffffffffffffffffffffffffffffffffffffffff16815260200190815260200160002060a06040519081016040529081600082018054600181600116156101000203166002900480601f016020809104026020016040519081016040528092919081815260200182805460018160011615610100020316600290048015611ab45780601f10611a8957610100808354040283529160200191611ab4565b820191906000526020600020905b815481529060010190602001808311611a9757829003601f168201915b50505050508152602001600182018054600181600116156101000203166002900480601f016020809104026020016040519081016040528092919081815260200182805460018160011615610100020316600290048015611b565780601f10611b2b57610100808354040283529160200191611b56565b820191906000526020600020905b815481529060010190602001808311611b3957829003601f168201915b5050505050815260200160028201548152602001600382018054600181600116156101000203166002900480601f016020809104026020016040519081016040528092919081815260200182805460018160011615610100020316600290048015611c025780601f10611bd757610100808354040283529160200191611c02565b820191906000526020600020905b815481529060010190602001808311611be557829003601f168201915b505050505081526020016004820160009054906101000a900460ff166002811115611c2957fe5b6002811115611c3457fe5b8152505090506000808a815260200190815260200160002060000160009054906101000a900473ffffffffffffffffffffffffffffffffffffffff166000808b815260200190815260200160002060010160009054906101000a900473ffffffffffffffffffffffffffffffffffffffff166000808c81526020019081526020016000206002016000808d815260200190815260200160002060030184604001518560600151838054600181600116156101000203166002900480601f016020809104026020016040519081016040528092919081815260200182805460018160011615610100020316600290048015611d6f5780601f10611d4457610100808354040283529160200191611d6f565b820191906000526020600020905b815481529060010190602001808311611d5257829003601f168201915b50505050509350828054600181600116156101000203166002900480601f016020809104026020016040519081016040528092919081815260200182805460018160011615610100020316600290048015611e0b5780601f10611de057610100808354040283529160200191611e0b565b820191906000526020600020905b815481529060010190602001808311611dee57829003601f168201915b50505050509250809050975097509750975097509750505091939550919395565b828054600181600116156101000203166002900490600052602060002090601f016020900481019282601f10611e6d57805160ff1916838001178555611e9b565b82800160010185558215611e9b579182015b82811115611e9a578251825591602001919060010190611e7f565b5b509050611ea89190611f67565b5090565b828054600181600116156101000203166002900490600052602060002090601f016020900481019282601f10611eed57805160ff1916838001178555611f1b565b82800160010185558215611f1b579182015b82811115611f1a578251825591602001919060010190611eff565b5b509050611f289190611f67565b5090565b60a0604051908101604052806060815260200160608152602001600081526020016060815260200160006002811115611f6157fe5b81525090565b611f8991905b80821115611f85576000816000905550600101611f6d565b5090565b9056fea165627a7a7230582045eeb0ba3fda946475633054721a88ebf390e7e3ce59b2d82cb127a58f02455c0029",
  "source": "pragma solidity ^0.5.0;\r\n\r\ncontract Rideshare {\r\n\r\n    struct Vehicle {\r\n        string make;\r\n        string model;\r\n        uint price;\r\n        string location; // locating is converted from string to address using parseAddress string\r\n        VehicleState state; // status of the vehicle. Has to be idle to hire vehicle\r\n    }\r\n    \r\n    struct User {\r\n        string fName;\r\n        string lName;\r\n        string licenceNo;\r\n        string dob;\r\n    }\r\n\r\n    struct Rental {\r\n        address driver;\r\n        address vehicle;\r\n        string start_date_time;\r\n        string end_date_time;\r\n        string location;\r\n    }\r\n    \r\n    // Status of the vehicle \r\n    enum VehicleState { active, inactive, idle }\r\n\r\n    // mapping to store the rentals\r\n    mapping (uint => Rental) rentals;\r\n\r\n    // mapping to store the vehicles\r\n    mapping (address => Vehicle) vehicles;\r\n    \r\n    // mapping to store the users\r\n    mapping (address => User) users;\r\n    \r\n    // number of vehicles\r\n    uint public numVehicles;\r\n    \r\n    // sequence number of rentals\r\n    uint rentalseq;\r\n    \r\n    // number of owners with listing of vehicles\r\n    address[] public vehicleAccts;\r\n    \r\n    // Register the user\r\n    function setUser(\r\n        address addr, \r\n        string memory fName, \r\n        string memory lName, \r\n        string memory licenceNo, \r\n        string memory dob\r\n    ) public {\r\n        users[addr] = User(fName, lName, licenceNo, dob);\r\n    }\r\n    \r\n    function getUser (address addr) public view returns (address, string memory, string memory, string memory, string memory) {\r\n        return (addr, users[addr].fName, users[addr].lName, users[addr].licenceNo, users[addr].dob);\r\n    }\r\n\r\n    // hire a vehicle\r\n    function setHire(\r\n        address driver,\r\n        address vehicle,   // vehicle is the same as owner's key\r\n        string memory start_date_time, \r\n        string memory end_date_time, \r\n        string memory location\r\n    ) public payable  {\r\n        rentalseq++;\r\n\r\n        rentals[rentalseq] = Rental(driver, vehicle, start_date_time, end_date_time, location);\r\n    }\r\n    \r\n    function getHire(uint rentalNo) public view returns (address, address, string memory, string memory, uint, string memory) {\r\n        \r\n        address vehicle = rentals[rentalNo].vehicle;\r\n        Vehicle memory vehicleInfo = vehicles[vehicle];\r\n        \r\n        return ( \r\n            rentals[rentalNo].driver,\r\n            rentals[rentalNo].vehicle, \r\n            rentals[rentalNo].start_date_time, \r\n            rentals[rentalNo].end_date_time,\r\n            vehicleInfo.price,\r\n            vehicleInfo.location // or is it rentals[rentalNo].location?\r\n        );\r\n    }\r\n\r\n    // register the vehicle onto the blockhain    \r\n    function setVehicle(address owner, string memory make, string memory model, uint price, string memory location) public {\r\n        numVehicles++;\r\n\r\n        Vehicle storage vehicle = vehicles[owner];\r\n        \r\n        vehicle.make = make;\r\n        vehicle.model = model;\r\n        vehicle.price = price;\r\n        vehicle.location = location;\r\n        \r\n        vehicleAccts.push(owner) -1;\r\n    }\r\n    \r\n    function getVehicle(address owner) public view returns (string memory, string memory, uint, string memory) {\r\n        return (vehicles[owner].make, vehicles[owner].model, vehicles[owner].price, vehicles[owner].location);\r\n    }\r\n    \r\n    function getVehicleList() public view returns (address[] memory vehicles) {\r\n        return vehicleAccts;\r\n    }\r\n    \r\n    function getVehiclesCount() public view returns (uint) {\r\n        return numVehicles;\r\n    }\r\n\r\n}",
  "sourcePath": "C:/Users/jayal/Projects/EtherRide/contracts/Rideshare.sol",
  "compiler": {
    "name": "solc",
    "version": "0.5.0+commit.1d4f565a.Emscripten.clang"
  },
  "schemaVersion": "3.0.0",
  "updatedAt": "2019-02-12T02:45:50.647Z",
  "devdoc": {
    "methods": {}
  },
  "userdoc": {
    "methods": {}
  }
}